{
  "_format": "hh-sol-artifact-1",
  "contractName": "LendingPool",
  "sourceName": "contracts/LendingPool.sol",
  "abi": [
    {
      "inputs": [
        {
          "internalType": "address",
          "name": "_globalLedger",
          "type": "address"
        },
        {
          "internalType": "address",
          "name": "_interestManager",
          "type": "address"
        },
        {
          "internalType": "address",
          "name": "_oracle",
          "type": "address"
        },
        {
          "internalType": "TokenId",
          "name": "_usdt",
          "type": "address"
        },
        {
          "internalType": "TokenId",
          "name": "_eth",
          "type": "address"
        }
      ],
      "stateMutability": "nonpayable",
      "type": "constructor"
    },
    {
      "inputs": [
        {
          "internalType": "uint256",
          "name": "amount",
          "type": "uint256"
        },
        {
          "internalType": "TokenId",
          "name": "borrowToken",
          "type": "address"
        }
      ],
      "name": "borrow",
      "outputs": [],
      "stateMutability": "payable",
      "type": "function"
    },
    {
      "inputs": [
        {
          "internalType": "uint256",
          "name": "amount",
          "type": "uint256"
        }
      ],
      "name": "burnToken",
      "outputs": [],
      "stateMutability": "nonpayable",
      "type": "function"
    },
    {
      "inputs": [],
      "name": "deposit",
      "outputs": [],
      "stateMutability": "payable",
      "type": "function"
    },
    {
      "inputs": [],
      "name": "eth",
      "outputs": [
        {
          "internalType": "TokenId",
          "name": "",
          "type": "address"
        }
      ],
      "stateMutability": "view",
      "type": "function"
    },
    {
      "inputs": [
        {
          "internalType": "bool",
          "name": "success",
          "type": "bool"
        },
        {
          "internalType": "bytes",
          "name": "returnData",
          "type": "bytes"
        },
        {
          "internalType": "bytes",
          "name": "context",
          "type": "bytes"
        }
      ],
      "name": "finalizeLoan",
      "outputs": [],
      "stateMutability": "payable",
      "type": "function"
    },
    {
      "inputs": [],
      "name": "getOwnTokenBalance",
      "outputs": [
        {
          "internalType": "uint256",
          "name": "",
          "type": "uint256"
        }
      ],
      "stateMutability": "view",
      "type": "function"
    },
    {
      "inputs": [
        {
          "internalType": "address",
          "name": "account",
          "type": "address"
        }
      ],
      "name": "getTokenBalanceOf",
      "outputs": [
        {
          "internalType": "uint256",
          "name": "",
          "type": "uint256"
        }
      ],
      "stateMutability": "view",
      "type": "function"
    },
    {
      "inputs": [],
      "name": "getTokenId",
      "outputs": [
        {
          "internalType": "TokenId",
          "name": "",
          "type": "address"
        }
      ],
      "stateMutability": "view",
      "type": "function"
    },
    {
      "inputs": [],
      "name": "getTokenName",
      "outputs": [
        {
          "internalType": "string",
          "name": "",
          "type": "string"
        }
      ],
      "stateMutability": "view",
      "type": "function"
    },
    {
      "inputs": [],
      "name": "getTokenTotalSupply",
      "outputs": [
        {
          "internalType": "uint256",
          "name": "",
          "type": "uint256"
        }
      ],
      "stateMutability": "view",
      "type": "function"
    },
    {
      "inputs": [],
      "name": "globalLedger",
      "outputs": [
        {
          "internalType": "address",
          "name": "",
          "type": "address"
        }
      ],
      "stateMutability": "view",
      "type": "function"
    },
    {
      "inputs": [
        {
          "internalType": "bool",
          "name": "success",
          "type": "bool"
        },
        {
          "internalType": "bytes",
          "name": "returnData",
          "type": "bytes"
        },
        {
          "internalType": "bytes",
          "name": "context",
          "type": "bytes"
        }
      ],
      "name": "handleRepayment",
      "outputs": [],
      "stateMutability": "payable",
      "type": "function"
    },
    {
      "inputs": [],
      "name": "interestManager",
      "outputs": [
        {
          "internalType": "address",
          "name": "",
          "type": "address"
        }
      ],
      "stateMutability": "view",
      "type": "function"
    },
    {
      "inputs": [
        {
          "internalType": "uint256",
          "name": "amount",
          "type": "uint256"
        }
      ],
      "name": "mintToken",
      "outputs": [],
      "stateMutability": "nonpayable",
      "type": "function"
    },
    {
      "inputs": [],
      "name": "oracle",
      "outputs": [
        {
          "internalType": "address",
          "name": "",
          "type": "address"
        }
      ],
      "stateMutability": "view",
      "type": "function"
    },
    {
      "inputs": [
        {
          "internalType": "bool",
          "name": "success",
          "type": "bool"
        },
        {
          "internalType": "bytes",
          "name": "returnData",
          "type": "bytes"
        },
        {
          "internalType": "bytes",
          "name": "context",
          "type": "bytes"
        }
      ],
      "name": "processLoan",
      "outputs": [],
      "stateMutability": "payable",
      "type": "function"
    },
    {
      "inputs": [
        {
          "internalType": "bool",
          "name": "success",
          "type": "bool"
        },
        {
          "internalType": "bytes",
          "name": "returnData",
          "type": "bytes"
        },
        {
          "internalType": "bytes",
          "name": "context",
          "type": "bytes"
        }
      ],
      "name": "processRepayment",
      "outputs": [],
      "stateMutability": "payable",
      "type": "function"
    },
    {
      "inputs": [
        {
          "internalType": "bool",
          "name": "success",
          "type": "bool"
        },
        {
          "internalType": "bytes",
          "name": "returnData",
          "type": "bytes"
        },
        {
          "internalType": "bytes",
          "name": "context",
          "type": "bytes"
        }
      ],
      "name": "releaseCollateral",
      "outputs": [],
      "stateMutability": "payable",
      "type": "function"
    },
    {
      "inputs": [],
      "name": "repayLoan",
      "outputs": [],
      "stateMutability": "payable",
      "type": "function"
    },
    {
      "inputs": [
        {
          "internalType": "bool",
          "name": "success",
          "type": "bool"
        },
        {
          "internalType": "bytes",
          "name": "returnData",
          "type": "bytes"
        },
        {
          "internalType": "bytes",
          "name": "context",
          "type": "bytes"
        }
      ],
      "name": "sendCollateral",
      "outputs": [],
      "stateMutability": "payable",
      "type": "function"
    },
    {
      "inputs": [
        {
          "internalType": "address",
          "name": "to",
          "type": "address"
        },
        {
          "internalType": "TokenId",
          "name": "tokenId",
          "type": "address"
        },
        {
          "internalType": "uint256",
          "name": "amount",
          "type": "uint256"
        }
      ],
      "name": "sendToken",
      "outputs": [],
      "stateMutability": "nonpayable",
      "type": "function"
    },
    {
      "inputs": [
        {
          "internalType": "string",
          "name": "name",
          "type": "string"
        }
      ],
      "name": "setTokenName",
      "outputs": [],
      "stateMutability": "nonpayable",
      "type": "function"
    },
    {
      "inputs": [],
      "name": "usdt",
      "outputs": [
        {
          "internalType": "TokenId",
          "name": "",
          "type": "address"
        }
      ],
      "stateMutability": "view",
      "type": "function"
    }
  ],
  "bytecode": "0x6080346100e657601f611b8438819003918201601f19168301916001600160401b038311848410176100eb5780849260a0946040528339810103126100e65761004781610101565b9061005460208201610101565b61006060408301610101565b90610079608061007260608601610101565b9401610101565b600280546001600160a01b03199081166001600160a01b0397881617909155600380548216938716939093179092556004805483169386169390931790925560058054821693851693909317909255600680549092169216919091179055604051611a6e90816101168239f35b600080fd5b634e487b7160e01b600052604160045260246000fd5b51906001600160a01b03821682036100e65756fe608080604052600436101561001357600080fd5b60003560e01c908163010a38f51461115d5750806310401774146111345780632f48ab7d1461110b5780632fdcfbd2146110d357806346fe543114610f8a5780634761a3ee14610eaf5780634b3fd14814610d3f57806357df844b14610d21578063659dbf9914610bce5780637b47ec1a14610aac5780637dc0d1d014610a835780638389454814610a5e578063862b092b1461098a5780638c7c9e0c14610961578063a4f29aad146107c4578063c513a8f514610662578063c59e1c8f14610520578063c634d0321461045c578063d0e30db0146103d8578063d19b9b75146103b3578063ee065e111461038a578063eeaf7d8e1461024b5763f966ade71461011c57600080fd5b6000366003190112610246576101ea6020610135611893565b8161016360405192637453ed4760e11b838501523360248501526024845261015e6044856111be565b611489565b510151906040519163659dbf9960e01b848401523360248401526044830152604482526101916064836111be565b60025460405163100897a560e21b81526001600160a01b03909116600482015260a0602482015293849283926101fc9290916101cf60a48601611709565b62a7d8c06044870152858103600319016064870152906112a9565b838103600319016084850152906112a9565b0381600060d85af1801561023a5761021057005b6102319060203d602011610233575b61022981836111be565b8101906114b9565b005b503d61021f565b6040513d6000823e3d90fd5b600080fd5b61025436611251565b909115610345578060208061026e935183010191016113c4565b84516020868101966001600160a01b03909616959394939182019190910312610246576102af6102b69260646102a8610231985183611370565b04906114ac565b11156113f4565b6040516306eb746160e51b6020820152602481018390526001600160a01b03821660448201526000606480830191909152815291610334906102f96084856111be565b60405163c513a8f560e01b60208201526001600160a01b0391821660248201529216604483015281606481015b03601f1981018352826111be565b6002546001600160a01b031661179b565b60405162461bcd60e51b815260206004820152601960248201527f496e74657265737420726174652063616c6c206661696c6564000000000000006044820152606490fd5b34610246576000366003190112610246576003546040516001600160a01b039091168152602090f35b346102465760003660031901126102465760206103d03030611824565b604051908152f35b6000366003190112610246576102316103ef611893565b61044960206104116001600160a01b0361040885611489565b51511693611489565b51015160405163e859930760e01b60208201523360248201526001600160a01b03909316604484015260648301528160848101610326565b60025430906001600160a01b031661199e565b346102465760203660031901126102465760043561048161047b6114d1565b156112ea565b604051632cbbbfe160e11b81526004810182905260016024820152602081604481600060d05af190811561023a57600091610501575b50156104ce576104c9906000546114ac565b600055005b60405162461bcd60e51b815260206004820152600b60248201526a135a5b9d0819985a5b195960aa1b6044820152606490fd5b61051a915060203d6020116102335761022981836111be565b826104b7565b61052936611251565b90911561061d5761054481602080809451830101910161146f565b9190928181518183019384916000940101031261061a5750519081156105d5578161056f8230611824565b1061058657610231926001600160a01b03166115ce565b60405162461bcd60e51b815260206004820152602160248201527f496e73756666696369656e742066756e64732c206974206661696c73206865726044820152606560f81b6064820152608490fd5b60405162461bcd60e51b815260206004820152601860248201527f4e6f20636f6c6c61746572616c20746f2072656c6561736500000000000000006044820152606490fd5b80fd5b60405162461bcd60e51b815260206004820152601d60248201527f4661696c656420746f20726574726965766520636f6c6c61746572616c0000006044820152606490fd5b61066b36611251565b9190501561078857602061068a8282806101ea9551830101910161146f565b6005546001600160a01b03928316929081169116810361078257506006546001600160a01b0316905b60405163c35082a960e01b848201526001600160a01b0382811660248301528316604480830191909152815290610729906106ef6064846111be565b60405163c59e1c8f60e01b868201526001600160a01b0391821660248201529316604484015282606481015b03601f1981018452836111be565b60025460405163100897a560e21b81526001600160a01b03909116600482015260a0602482015293849283926101fc92909161076760a48601611709565b620557306044870152858103600319016064870152906112a9565b906106b3565b60405162461bcd60e51b8152602060048201526014602482015273131bd85b8818db19585c9a5b99c819985a5b195960621b6044820152606490fd5b346102465760203660031901126102465760043567ffffffffffffffff81116102465736602382011215610246576108069036906024816004013591016111fc565b61081161047b6114d1565b805167ffffffffffffffff811161094b5761082d600154611435565b601f81116108de575b50602091601f821160011461087257918192600092610867575b5050600019600383901b1c1916600191821b179055005b015190508280610850565b601f198216926001600052600080516020611a198339815191529160005b8581106108c6575083600195106108ad575b505050811b01600155005b015160001960f88460031b161c191690558280806108a2565b91926020600181928685015181550194019201610890565b6001600052601f820160051c600080516020611a19833981519152019060208310610935575b601f0160051c600080516020611a1983398151915201905b8181106109295750610836565b6000815560010161091c565b600080516020611a198339815191529150610904565b634e487b7160e01b600052604160045260246000fd5b34610246576000366003190112610246576006546040516001600160a01b039091168152602090f35b346102465760003660031901126102465760405160006001546109ac81611435565b8084529060018116908115610a3a57506001146109ec575b6109e8836109d4818503826111be565b6040519182916020835260208301906112a9565b0390f35b9190506001600052600080516020611a19833981519152916000905b808210610a20575090915081016020016109d46109c4565b919260018160209254838588010152019101909291610a08565b60ff191660208086019190915291151560051b840190910191506109d490506109c4565b346102465760203660031901126102465760206103d0610a7c611176565b3090611824565b34610246576000366003190112610246576004546040516001600160a01b039091168152602090f35b3461024657602036600319011261024657600435610acb61047b6114d1565b8060005410610b8957604051632cbbbfe160e11b815281600482015260006024820152602081604481600060d05af190811561023a57600091610b6a575b5015610b3757600054908103908111610b2157600055005b634e487b7160e01b600052601160045260246000fd5b60405162461bcd60e51b815260206004820152600b60248201526a109d5c9b8819985a5b195960aa1b6044820152606490fd5b610b83915060203d6020116102335761022981836111be565b82610b09565b60405162461bcd60e51b815260206004820152601e60248201527f4275726e206661696c65643a206e6f7420656e6f75676820746f6b656e7300006044820152606490fd5b610be3610bda36611251565b91929092611383565b604081805181010312610246576040610bfe6020830161135c565b9101519160408180518101031261024657610c2060406020830151920161135c565b8115610ceb57610c9260209361071b6101ea966040519463292bdab360e11b8887015260048652610c526024876111be565b604051637757bec760e11b898201526001600160a01b039485166024820152604481019790975290921660648601526084850191909152839060a4820190565b60035460405163100897a560e21b81526001600160a01b03909116600482015260a0602482015293849283926101fc929091610cd060a48601611709565b627a12006044870152858103600319016064870152906112a9565b60405162461bcd60e51b815260206004820152600e60248201526d27379030b1ba34bb32903637b0b760911b6044820152606490fd5b34610246576000366003190112610246576020600054604051908152f35b604036600319011261024657600435610d5661118c565b6005546001600160a01b038281169116818114939190848015610e9b575b15610e66576101ea94610d9484610d8d60209730611824565b10156113f4565b15610e6157506006546001600160a01b03165b6040516341976e0960e01b858201526024808201849052815291610dcc6044846111be565b6040516346fe543160e01b86820152336024820152604481019490945260648401526001600160a01b03166084808401919091528252610e0d60a4836111be565b6101fc60018060a01b036004541691604051958694859463100897a560e21b8652600486015260a06024860152610e4660a48601611709565b628954406044870152858103600319016064870152906112a9565b610da7565b60405162461bcd60e51b815260206004820152600d60248201526c24b73b30b634b2103a37b5b2b760991b6044820152606490fd5b506006546001600160a01b03168214610d74565b610ec7610ed6610ebe36611251565b91939093611383565b602080825183010191016113c4565b90919260018060a01b03169360208151918180820193849201010312610246575110610f45576040516306eb746160e51b60208201526001600160a01b03808516602483015282166044820152606481018390526102319390610f40906104498160848101610326565b6115ce565b60405162461bcd60e51b815260206004820152601760248201527f496e73756666696369656e7420636f6c6c61746572616c0000000000000000006044820152606490fd5b610f9336611251565b91156110995760808280518101031261024657610fb26020830161135c565b916040810151610fd06080610fc96060850161135c565b930161135c565b835190946001600160a01b0316936020808201928201919091031261024657610ffa905182611370565b607881029080820460781490151715610b215760405163c35082a960e01b60208201526001600160a01b03858116602483015295909516604480870191909152855261023194936064936103349361032692919061105887896111be565b6040516323b0d1f760e11b60208201526001600160a01b039384166024820152604481019190915291166064820152939091046084840152829060a4820190565b60405162461bcd60e51b815260206004820152601260248201527113dc9858db194818d85b1b0819985a5b195960721b6044820152606490fd5b34610246576060366003190112610246576102316110ef611176565b6110f761118c565b61110261047b6114d1565b604435916115ce565b34610246576000366003190112610246576005546040516001600160a01b039091168152602090f35b34610246576000366003190112610246576002546040516001600160a01b039091168152602090f35b3461024657600036600319011261024657602090308152f35b600435906001600160a01b038216820361024657565b602435906001600160a01b038216820361024657565b6040810190811067ffffffffffffffff82111761094b57604052565b90601f8019910116810190811067ffffffffffffffff82111761094b57604052565b67ffffffffffffffff811161094b57601f01601f191660200190565b929192611208826111e0565b9161121660405193846111be565b829481845281830111610246578281602093846000960137010152565b9080601f830112156102465781602061124e933591016111fc565b90565b6060600319820112610246576004358015158103610246579160243567ffffffffffffffff8111610246578261128991600401611233565b916044359067ffffffffffffffff82116102465761124e91600401611233565b919082519283825260005b8481106112d5575050826000602080949584010152601f8019910116010190565b806020809284010151828286010152016112b4565b156112f157565b60405162461bcd60e51b815260206004820152603a60248201527f547279696e6720746f2063616c6c2065787465726e616c2066756e6374696f6e60448201527f207769746820696e7465726e616c207472616e73616374696f6e0000000000006064820152608490fd5b51906001600160a01b038216820361024657565b81810292918115918404141715610b2157565b1561138a57565b60405162461bcd60e51b815260206004820152601260248201527113195919d95c8818d85b1b0819985a5b195960721b6044820152606490fd5b9190826080910312610246576113d98261135c565b9160208101519160606113ee6040840161135c565b92015190565b156113fb57565b60405162461bcd60e51b8152602060048201526012602482015271496e73756666696369656e742066756e647360701b6044820152606490fd5b90600182811c92168015611465575b602083101461144f57565b634e487b7160e01b600052602260045260246000fd5b91607f1691611444565b91908260409103126102465761124e6020610fc98461135c565b8051156114965760200190565b634e487b7160e01b600052603260045260246000fd5b91908201809211610b2157565b90816020910312610246575180151581036102465790565b600080606051608060ff5afa3d156115c6573d906114ee826111e0565b916114fc60405193846111be565b82523d6000602084013e5b1561158257805115611526578060208061124e935183010191016114b9565b60405162461bcd60e51b815260206004820152602e60248201527f2749535f494e5445524e414c5f5452414e53414354494f4e272072657475726e60448201526d7320696e76616c6964206461746160901b6064820152608490fd5b606460405162461bcd60e51b815260206004820152602060248201527f507265636f6d70696c656420636f6e74726163742063616c6c206661696c65646044820152fd5b606090611507565b9291926040908151926115e183856111be565b60018452601f19830160005b8181106116e5575050611698939495835191611608836111a2565b6001600160a01b03168252602082015261162185611489565b5261162b84611489565b5060209384916116aa845161164085826111be565b600081528551968794859463f697565360e01b8652600060048701526000602487015260018060a01b031660448601526000606486015260006084860152600060a486015261010060c4860152610104850190611752565b8381036003190160e4850152906112a9565b0381600060fd5af19081156116db57506116c2575050565b816116d892903d106102335761022981836111be565b50565b513d6000823e3d90fd5b60209085516116f3816111a2565b60008152600083820152828289010152016115ed565b602060605191828152019060809060005b8181106117275750505090565b825180516001600160a01b03168552602090810151818601526040909401939092019160010161171a565b906020808351928381520192019060005b8181106117705750505090565b825180516001600160a01b031685526020908101518186015260409094019390920191600101611763565b60405163100897a560e21b81526001600160a01b03909116600482015260a0602482015291602091839182916117f791906101ea906117dc60a48601611709565b625b8d806044870152858103600319016064870152906112a9565b0381600060d85af1801561023a5761180c5750565b6116d89060203d6020116102335761022981836111be565b604051639614ddaf60e01b81526001600160a01b0392831660048201529116602482015260208160448160d15afa90811561023a57600091611864575090565b90506020813d60201161188b575b8161187f602093836111be565b81010312610246575190565b3d9150611872565b6040516304016d8760e51b81526000816004818360d35af190811561023a576000916118bd575090565b903d8082843e6118cd81846111be565b82019160208184031261199a5780519067ffffffffffffffff8211611982570182601f8201121561199a5780519167ffffffffffffffff83116119865760208360051b019361191f60405195866111be565b83855260208086019460061b8401019281841161198257602001935b83851061194a57505050505090565b6040858303126119825760206040918251611964816111a2565b61196d8861135c565b8152828801518382015281520194019361193b565b8280fd5b634e487b7160e01b81526041600452602490fd5b5080fd5b60405163f697565360e01b8152600060048201819052602482018190526001600160a01b0392831660448301526064820181905291909216608483015260a482015261010060c48201529060209082908190611a039061169861010484016060611752565b0381600060fd5af1801561023a5761180c575056feb10e2d527612073b26eecdfd717e6a320cf44b4afac2b0732d9fcbe2b7fa0cf6a26469706673582212201ba53aad6a68e879fb18926054f47c2fea16d8538d25c431f11c0ade08bfd72c64736f6c634300081c0033",
  "linkReferences": {},
  "deployedLinkReferences": {}
}