{"@nilfoundation/smart-contracts/contracts/Nil.sol":{"NilConfigAbi":{"abi":[{"inputs":[{"components":[{"components":[{"components":[{"internalType":"uint8[33]","name":"PublicKey","type":"uint8[33]"},{"internalType":"address","name":"WithdrawalAddress","type":"address"}],"internalType":"struct Nil.ValidatorInfo[]","name":"list","type":"tuple[]"}],"internalType":"struct Nil.ListValidators[]","name":"validators","type":"tuple[]"}],"internalType":"struct Nil.ParamValidators","name":"","type":"tuple"}],"name":"curr_validators","outputs":[],"stateMutability":"nonpayable","type":"function"},{"inputs":[{"components":[{"internalType":"uint256[]","name":"shards","type":"uint256[]"}],"internalType":"struct Nil.ParamGasPrice","name":"","type":"tuple"}],"name":"gas_price","outputs":[],"stateMutability":"nonpayable","type":"function"},{"inputs":[{"components":[{"internalType":"uint64","name":"number","type":"uint64"},{"internalType":"uint64","name":"timestamp","type":"uint64"},{"internalType":"uint256","name":"baseFee","type":"uint256"},{"internalType":"uint256","name":"blobBaseFee","type":"uint256"},{"internalType":"bytes32","name":"hash","type":"bytes32"}],"internalType":"struct Nil.ParamL1BlockInfo","name":"","type":"tuple"}],"name":"l1block","outputs":[],"stateMutability":"nonpayable","type":"function"}],"evm":{"bytecode":{"linkReferences":{},"object":"60808060405234601557610402908161001b8239f35b600080fdfe6080604052600436101561001257600080fd5b60003560e01c806341207afb146102c8578063e66c5d52146102395763fb5d63f51461003d57600080fd5b34610204576020366003190112610204576004356001600160401b038111610204576020600319823603011261020457610075610371565b908060040135906001600160401b038211610204570190366023830112156102045760048201356100ad6100a8826103b5565b610390565b92602060048186858152019360051b83010101903682116102045760248101925b8284106100da57858552005b83356001600160401b038111610204576004908301016020601f19823603011261020457610106610371565b9060208101356001600160401b03811161020457602091010136601f820112156102045780356101386100a8826103b5565b91602061044081858581520193028201019036821161020457602001915b8183106101705750505081528152602093840193016100ce565b610440833603126102045760405190604082018281106001600160401b038211176102235760405236601f850112156102045760405161042081018181106001600160401b0382111761022357604052806104208601913683116102045786905b838210610209575050835235906001600160a01b0382168203610204578260209283610440950152815201920191610156565b600080fd5b813560ff81168103610204578152602091820191016101d1565b634e487b7160e01b600052604160045260246000fd5b346102045760a036600319011261020457600060405160a081018181106001600160401b038211176102b4576040526004356001600160401b03811681036102b05781526024356001600160401b03811681036102b057602082015260443560408201526064356060820152608060843591015280f35b8280fd5b634e487b7160e01b83526041600452602483fd5b34610204576020366003190112610204576004356001600160401b038111610204576020600319823603011261020457610300610371565b908060040135906001600160401b03821161020457019036602383011215610204576004820135916103346100a8846103b5565b92602060048186848152019260051b840101019136831161020457602401905b8282106103615750505052005b8135815260209182019101610354565b60405190602082018281106001600160401b0382111761022357604052565b6040519190601f01601f191682016001600160401b0381118382101761022357604052565b6001600160401b0381116102235760051b6020019056fea2646970667358221220379b48953cffb55b5e9d1b526817b65c56c961d9a7201be071c0deb4c09ada0d64736f6c634300081c0033","opcodes":"PUSH1 0x80 DUP1 PUSH1 0x40 MSTORE CALLVALUE PUSH1 0x15 JUMPI PUSH2 0x402 SWAP1 DUP2 PUSH2 0x1B DUP3 CODECOPY RETURN JUMPDEST PUSH1 0x0 DUP1 REVERT INVALID PUSH1 0x80 PUSH1 0x40 MSTORE PUSH1 0x4 CALLDATASIZE LT ISZERO PUSH2 0x12 JUMPI PUSH1 0x0 DUP1 REVERT JUMPDEST PUSH1 0x0 CALLDATALOAD PUSH1 0xE0 SHR DUP1 PUSH4 0x41207AFB EQ PUSH2 0x2C8 JUMPI DUP1 PUSH4 0xE66C5D52 EQ PUSH2 0x239 JUMPI PUSH4 0xFB5D63F5 EQ PUSH2 0x3D JUMPI PUSH1 0x0 DUP1 REVERT JUMPDEST CALLVALUE PUSH2 0x204 JUMPI PUSH1 0x20 CALLDATASIZE PUSH1 0x3 NOT ADD SLT PUSH2 0x204 JUMPI PUSH1 0x4 CALLDATALOAD PUSH1 0x1 PUSH1 0x1 PUSH1 0x40 SHL SUB DUP2 GT PUSH2 0x204 JUMPI PUSH1 0x20 PUSH1 0x3 NOT DUP3 CALLDATASIZE SUB ADD SLT PUSH2 0x204 JUMPI PUSH2 0x75 PUSH2 0x371 JUMP JUMPDEST SWAP1 DUP1 PUSH1 0x4 ADD CALLDATALOAD SWAP1 PUSH1 0x1 PUSH1 0x1 PUSH1 0x40 SHL SUB DUP3 GT PUSH2 0x204 JUMPI ADD SWAP1 CALLDATASIZE PUSH1 0x23 DUP4 ADD SLT ISZERO PUSH2 0x204 JUMPI PUSH1 0x4 DUP3 ADD CALLDATALOAD PUSH2 0xAD PUSH2 0xA8 DUP3 PUSH2 0x3B5 JUMP JUMPDEST PUSH2 0x390 JUMP JUMPDEST SWAP3 PUSH1 0x20 PUSH1 0x4 DUP2 DUP7 DUP6 DUP2 MSTORE ADD SWAP4 PUSH1 0x5 SHL DUP4 ADD ADD ADD SWAP1 CALLDATASIZE DUP3 GT PUSH2 0x204 JUMPI PUSH1 0x24 DUP2 ADD SWAP3 JUMPDEST DUP3 DUP5 LT PUSH2 0xDA JUMPI DUP6 DUP6 MSTORE STOP JUMPDEST DUP4 CALLDATALOAD PUSH1 0x1 PUSH1 0x1 PUSH1 0x40 SHL SUB DUP2 GT PUSH2 0x204 JUMPI PUSH1 0x4 SWAP1 DUP4 ADD ADD PUSH1 0x20 PUSH1 0x1F NOT DUP3 CALLDATASIZE SUB ADD SLT PUSH2 0x204 JUMPI PUSH2 0x106 PUSH2 0x371 JUMP JUMPDEST SWAP1 PUSH1 0x20 DUP2 ADD CALLDATALOAD PUSH1 0x1 PUSH1 0x1 PUSH1 0x40 SHL SUB DUP2 GT PUSH2 0x204 JUMPI PUSH1 0x20 SWAP2 ADD ADD CALLDATASIZE PUSH1 0x1F DUP3 ADD SLT ISZERO PUSH2 0x204 JUMPI DUP1 CALLDATALOAD PUSH2 0x138 PUSH2 0xA8 DUP3 PUSH2 0x3B5 JUMP JUMPDEST SWAP2 PUSH1 0x20 PUSH2 0x440 DUP2 DUP6 DUP6 DUP2 MSTORE ADD SWAP4 MUL DUP3 ADD ADD SWAP1 CALLDATASIZE DUP3 GT PUSH2 0x204 JUMPI PUSH1 0x20 ADD SWAP2 JUMPDEST DUP2 DUP4 LT PUSH2 0x170 JUMPI POP POP POP DUP2 MSTORE DUP2 MSTORE PUSH1 0x20 SWAP4 DUP5 ADD SWAP4 ADD PUSH2 0xCE JUMP JUMPDEST PUSH2 0x440 DUP4 CALLDATASIZE SUB SLT PUSH2 0x204 JUMPI PUSH1 0x40 MLOAD SWAP1 PUSH1 0x40 DUP3 ADD DUP3 DUP2 LT PUSH1 0x1 PUSH1 0x1 PUSH1 0x40 SHL SUB DUP3 GT OR PUSH2 0x223 JUMPI PUSH1 0x40 MSTORE CALLDATASIZE PUSH1 0x1F DUP6 ADD SLT ISZERO PUSH2 0x204 JUMPI PUSH1 0x40 MLOAD PUSH2 0x420 DUP2 ADD DUP2 DUP2 LT PUSH1 0x1 PUSH1 0x1 PUSH1 0x40 SHL SUB DUP3 GT OR PUSH2 0x223 JUMPI PUSH1 0x40 MSTORE DUP1 PUSH2 0x420 DUP7 ADD SWAP2 CALLDATASIZE DUP4 GT PUSH2 0x204 JUMPI DUP7 SWAP1 JUMPDEST DUP4 DUP3 LT PUSH2 0x209 JUMPI POP POP DUP4 MSTORE CALLDATALOAD SWAP1 PUSH1 0x1 PUSH1 0x1 PUSH1 0xA0 SHL SUB DUP3 AND DUP3 SUB PUSH2 0x204 JUMPI DUP3 PUSH1 0x20 SWAP3 DUP4 PUSH2 0x440 SWAP6 ADD MSTORE DUP2 MSTORE ADD SWAP3 ADD SWAP2 PUSH2 0x156 JUMP JUMPDEST PUSH1 0x0 DUP1 REVERT JUMPDEST DUP2 CALLDATALOAD PUSH1 0xFF DUP2 AND DUP2 SUB PUSH2 0x204 JUMPI DUP2 MSTORE PUSH1 0x20 SWAP2 DUP3 ADD SWAP2 ADD PUSH2 0x1D1 JUMP JUMPDEST PUSH4 0x4E487B71 PUSH1 0xE0 SHL PUSH1 0x0 MSTORE PUSH1 0x41 PUSH1 0x4 MSTORE PUSH1 0x24 PUSH1 0x0 REVERT JUMPDEST CALLVALUE PUSH2 0x204 JUMPI PUSH1 0xA0 CALLDATASIZE PUSH1 0x3 NOT ADD SLT PUSH2 0x204 JUMPI PUSH1 0x0 PUSH1 0x40 MLOAD PUSH1 0xA0 DUP2 ADD DUP2 DUP2 LT PUSH1 0x1 PUSH1 0x1 PUSH1 0x40 SHL SUB DUP3 GT OR PUSH2 0x2B4 JUMPI PUSH1 0x40 MSTORE PUSH1 0x4 CALLDATALOAD PUSH1 0x1 PUSH1 0x1 PUSH1 0x40 SHL SUB DUP2 AND DUP2 SUB PUSH2 0x2B0 JUMPI DUP2 MSTORE PUSH1 0x24 CALLDATALOAD PUSH1 0x1 PUSH1 0x1 PUSH1 0x40 SHL SUB DUP2 AND DUP2 SUB PUSH2 0x2B0 JUMPI PUSH1 0x20 DUP3 ADD MSTORE PUSH1 0x44 CALLDATALOAD PUSH1 0x40 DUP3 ADD MSTORE PUSH1 0x64 CALLDATALOAD PUSH1 0x60 DUP3 ADD MSTORE PUSH1 0x80 PUSH1 0x84 CALLDATALOAD SWAP2 ADD MSTORE DUP1 RETURN JUMPDEST DUP3 DUP1 REVERT JUMPDEST PUSH4 0x4E487B71 PUSH1 0xE0 SHL DUP4 MSTORE PUSH1 0x41 PUSH1 0x4 MSTORE PUSH1 0x24 DUP4 REVERT JUMPDEST CALLVALUE PUSH2 0x204 JUMPI PUSH1 0x20 CALLDATASIZE PUSH1 0x3 NOT ADD SLT PUSH2 0x204 JUMPI PUSH1 0x4 CALLDATALOAD PUSH1 0x1 PUSH1 0x1 PUSH1 0x40 SHL SUB DUP2 GT PUSH2 0x204 JUMPI PUSH1 0x20 PUSH1 0x3 NOT DUP3 CALLDATASIZE SUB ADD SLT PUSH2 0x204 JUMPI PUSH2 0x300 PUSH2 0x371 JUMP JUMPDEST SWAP1 DUP1 PUSH1 0x4 ADD CALLDATALOAD SWAP1 PUSH1 0x1 PUSH1 0x1 PUSH1 0x40 SHL SUB DUP3 GT PUSH2 0x204 JUMPI ADD SWAP1 CALLDATASIZE PUSH1 0x23 DUP4 ADD SLT ISZERO PUSH2 0x204 JUMPI PUSH1 0x4 DUP3 ADD CALLDATALOAD SWAP2 PUSH2 0x334 PUSH2 0xA8 DUP5 PUSH2 0x3B5 JUMP JUMPDEST SWAP3 PUSH1 0x20 PUSH1 0x4 DUP2 DUP7 DUP5 DUP2 MSTORE ADD SWAP3 PUSH1 0x5 SHL DUP5 ADD ADD ADD SWAP2 CALLDATASIZE DUP4 GT PUSH2 0x204 JUMPI PUSH1 0x24 ADD SWAP1 JUMPDEST DUP3 DUP3 LT PUSH2 0x361 JUMPI POP POP POP MSTORE STOP JUMPDEST DUP2 CALLDATALOAD DUP2 MSTORE PUSH1 0x20 SWAP2 DUP3 ADD SWAP2 ADD PUSH2 0x354 JUMP JUMPDEST PUSH1 0x40 MLOAD SWAP1 PUSH1 0x20 DUP3 ADD DUP3 DUP2 LT PUSH1 0x1 PUSH1 0x1 PUSH1 0x40 SHL SUB DUP3 GT OR PUSH2 0x223 JUMPI PUSH1 0x40 MSTORE JUMP JUMPDEST PUSH1 0x40 MLOAD SWAP2 SWAP1 PUSH1 0x1F ADD PUSH1 0x1F NOT AND DUP3 ADD PUSH1 0x1 PUSH1 0x1 PUSH1 0x40 SHL SUB DUP2 GT DUP4 DUP3 LT OR PUSH2 0x223 JUMPI PUSH1 0x40 MSTORE JUMP JUMPDEST PUSH1 0x1 PUSH1 0x1 PUSH1 0x40 SHL SUB DUP2 GT PUSH2 0x223 JUMPI PUSH1 0x5 SHL PUSH1 0x20 ADD SWAP1 JUMP INVALID LOG2 PUSH5 0x6970667358 0x22 SLT KECCAK256 CALLDATACOPY SWAP12 BASEFEE SWAP6 EXTCODECOPY SELFDESTRUCT 0xB5 JUMPDEST MCOPY SWAP14 SHL MSTORE PUSH9 0x17B65C56C961D9A720 SHL 0xE0 PUSH18 0xC0DEB4C09ADA0D64736F6C634300081C0033 "},"methodIdentifiers":{"curr_validators((((uint8[33],address)[])[]))":"fb5d63f5","gas_price((uint256[]))":"41207afb","l1block((uint64,uint64,uint256,uint256,bytes32))":"e66c5d52"}}}}}