{"@nilfoundation/smart-contracts/contracts/Nil.sol":{"Nil":{"abi":[{"inputs":[],"name":"ASYNC_REQUEST_MIN_GAS","outputs":[{"internalType":"uint256","name":"","type":"uint256"}],"stateMutability":"view","type":"function"},{"inputs":[],"name":"FORWARD_NONE","outputs":[{"internalType":"uint8","name":"","type":"uint8"}],"stateMutability":"view","type":"function"},{"inputs":[],"name":"FORWARD_PERCENTAGE","outputs":[{"internalType":"uint8","name":"","type":"uint8"}],"stateMutability":"view","type":"function"},{"inputs":[],"name":"FORWARD_REMAINING","outputs":[{"internalType":"uint8","name":"","type":"uint8"}],"stateMutability":"view","type":"function"},{"inputs":[],"name":"FORWARD_VALUE","outputs":[{"internalType":"uint8","name":"","type":"uint8"}],"stateMutability":"view","type":"function"},{"inputs":[],"name":"IS_INTERNAL_TRANSACTION","outputs":[{"internalType":"address","name":"","type":"address"}],"stateMutability":"view","type":"function"},{"inputs":[],"name":"IS_RESPONSE_TRANSACTION","outputs":[{"internalType":"address","name":"","type":"address"}],"stateMutability":"view","type":"function"},{"inputs":[],"name":"LOG","outputs":[{"internalType":"address","name":"","type":"address"}],"stateMutability":"view","type":"function"},{"inputs":[],"name":"MANAGE_TOKEN","outputs":[{"internalType":"address","name":"","type":"address"}],"stateMutability":"view","type":"function"},{"inputs":[],"name":"VERIFY_SIGNATURE","outputs":[{"internalType":"address","name":"","type":"address"}],"stateMutability":"view","type":"function"}],"evm":{"bytecode":{"linkReferences":{},"object":"608080604052346019576101ad908161001f823930815050f35b600080fdfe608080604052600436101561001357600080fd5b60003560e01c9081631816a5e114610162575080633840cdae1461014b57806342e6d4d714610134578063434b4d631461011d578063620c9317146101065780639bc465a0146100ef578063a167fd5f146100d8578063cbb1c30a146100c0578063d2ec13b2146100a95763df09b8eb1461008d57600080fd5b60003660031901126100a457602060405160038152f35b600080fd5b60003660031901126100a457602060405160028152f35b60003660031901126100a457602060405161c3508152f35b60003660031901126100a457602060405160fe8152f35b60003660031901126100a457602060405160018152f35b60003660031901126100a457602060405160d08152f35b60003660031901126100a457602060405160ff8152f35b60003660031901126100a457602060405160008152f35b60003660031901126100a457602060405160d98152f35b60003660031901126100a4578060da60209252f3fea2646970667358221220cdb4302363d6557902384b1394f73293a5bd106beeb6aea9cb5357e2d585a30464736f6c634300081c0033","opcodes":"PUSH1 0x80 DUP1 PUSH1 0x40 MSTORE CALLVALUE PUSH1 0x19 JUMPI PUSH2 0x1AD SWAP1 DUP2 PUSH2 0x1F DUP3 CODECOPY ADDRESS DUP2 POP POP RETURN JUMPDEST PUSH1 0x0 DUP1 REVERT INVALID PUSH1 0x80 DUP1 PUSH1 0x40 MSTORE PUSH1 0x4 CALLDATASIZE LT ISZERO PUSH2 0x13 JUMPI PUSH1 0x0 DUP1 REVERT JUMPDEST PUSH1 0x0 CALLDATALOAD PUSH1 0xE0 SHR SWAP1 DUP2 PUSH4 0x1816A5E1 EQ PUSH2 0x162 JUMPI POP DUP1 PUSH4 0x3840CDAE EQ PUSH2 0x14B JUMPI DUP1 PUSH4 0x42E6D4D7 EQ PUSH2 0x134 JUMPI DUP1 PUSH4 0x434B4D63 EQ PUSH2 0x11D JUMPI DUP1 PUSH4 0x620C9317 EQ PUSH2 0x106 JUMPI DUP1 PUSH4 0x9BC465A0 EQ PUSH2 0xEF JUMPI DUP1 PUSH4 0xA167FD5F EQ PUSH2 0xD8 JUMPI DUP1 PUSH4 0xCBB1C30A EQ PUSH2 0xC0 JUMPI DUP1 PUSH4 0xD2EC13B2 EQ PUSH2 0xA9 JUMPI PUSH4 0xDF09B8EB EQ PUSH2 0x8D JUMPI PUSH1 0x0 DUP1 REVERT JUMPDEST PUSH1 0x0 CALLDATASIZE PUSH1 0x3 NOT ADD SLT PUSH2 0xA4 JUMPI PUSH1 0x20 PUSH1 0x40 MLOAD PUSH1 0x3 DUP2 MSTORE RETURN JUMPDEST PUSH1 0x0 DUP1 REVERT JUMPDEST PUSH1 0x0 CALLDATASIZE PUSH1 0x3 NOT ADD SLT PUSH2 0xA4 JUMPI PUSH1 0x20 PUSH1 0x40 MLOAD PUSH1 0x2 DUP2 MSTORE RETURN JUMPDEST PUSH1 0x0 CALLDATASIZE PUSH1 0x3 NOT ADD SLT PUSH2 0xA4 JUMPI PUSH1 0x20 PUSH1 0x40 MLOAD PUSH2 0xC350 DUP2 MSTORE RETURN JUMPDEST PUSH1 0x0 CALLDATASIZE PUSH1 0x3 NOT ADD SLT PUSH2 0xA4 JUMPI PUSH1 0x20 PUSH1 0x40 MLOAD PUSH1 0xFE DUP2 MSTORE RETURN JUMPDEST PUSH1 0x0 CALLDATASIZE PUSH1 0x3 NOT ADD SLT PUSH2 0xA4 JUMPI PUSH1 0x20 PUSH1 0x40 MLOAD PUSH1 0x1 DUP2 MSTORE RETURN JUMPDEST PUSH1 0x0 CALLDATASIZE PUSH1 0x3 NOT ADD SLT PUSH2 0xA4 JUMPI PUSH1 0x20 PUSH1 0x40 MLOAD PUSH1 0xD0 DUP2 MSTORE RETURN JUMPDEST PUSH1 0x0 CALLDATASIZE PUSH1 0x3 NOT ADD SLT PUSH2 0xA4 JUMPI PUSH1 0x20 PUSH1 0x40 MLOAD PUSH1 0xFF DUP2 MSTORE RETURN JUMPDEST PUSH1 0x0 CALLDATASIZE PUSH1 0x3 NOT ADD SLT PUSH2 0xA4 JUMPI PUSH1 0x20 PUSH1 0x40 MLOAD PUSH1 0x0 DUP2 MSTORE RETURN JUMPDEST PUSH1 0x0 CALLDATASIZE PUSH1 0x3 NOT ADD SLT PUSH2 0xA4 JUMPI PUSH1 0x20 PUSH1 0x40 MLOAD PUSH1 0xD9 DUP2 MSTORE RETURN JUMPDEST PUSH1 0x0 CALLDATASIZE PUSH1 0x3 NOT ADD SLT PUSH2 0xA4 JUMPI DUP1 PUSH1 0xDA PUSH1 0x20 SWAP3 MSTORE RETURN INVALID LOG2 PUSH5 0x6970667358 0x22 SLT KECCAK256 0xCD 0xB4 ADDRESS 0x23 PUSH4 0xD6557902 CODESIZE 0x4B SGT SWAP5 0xF7 ORIGIN SWAP4 0xA5 0xBD LT PUSH12 0xEEB6AEA9CB5357E2D585A304 PUSH5 0x736F6C6343 STOP ADDMOD SHR STOP CALLER "},"methodIdentifiers":{"ASYNC_REQUEST_MIN_GAS()":"cbb1c30a","FORWARD_NONE()":"df09b8eb","FORWARD_PERCENTAGE()":"9bc465a0","FORWARD_REMAINING()":"42e6d4d7","FORWARD_VALUE()":"d2ec13b2","IS_INTERNAL_TRANSACTION()":"434b4d63","IS_RESPONSE_TRANSACTION()":"3840cdae","LOG()":"1816a5e1","MANAGE_TOKEN()":"620c9317","VERIFY_SIGNATURE()":"a167fd5f"}}}}}