{"contracts/testContract.sol":{"GlobalLedger":{"abi":[{"inputs":[{"internalType":"address","name":"","type":"address"}],"name":"deposits","outputs":[{"internalType":"uint256","name":"","type":"uint256"}],"stateMutability":"view","type":"function"},{"inputs":[{"internalType":"address","name":"user","type":"address"},{"internalType":"uint256","name":"amount","type":"uint256"}],"name":"recordDeposit","outputs":[],"stateMutability":"nonpayable","type":"function"}],"evm":{"bytecode":{"linkReferences":{},"object":"60808060405234601557610107908161001b8239f35b600080fdfe60806040526004361015601157600080fd5b60003560e01c80631e578bae14606a5763fc7e286d14602f57600080fd5b3460655760203660031901126065576001600160a01b03604c60bc565b1660005260006020526020604060002054604051908152f35b600080fd5b3460655760403660031901126065576001600160a01b03608760bc565b1660005260006020526040600020805490602435820180921160a65755005b634e487b7160e01b600052601160045260246000fd5b600435906001600160a01b038216820360655756fea2646970667358221220d40baa22916af40e466941608d9fb79602c19c07283dd9cc4e3acc32688219a064736f6c634300081c0033","opcodes":"PUSH1 0x80 DUP1 PUSH1 0x40 MSTORE CALLVALUE PUSH1 0x15 JUMPI PUSH2 0x107 SWAP1 DUP2 PUSH2 0x1B DUP3 CODECOPY RETURN JUMPDEST PUSH1 0x0 DUP1 REVERT INVALID PUSH1 0x80 PUSH1 0x40 MSTORE PUSH1 0x4 CALLDATASIZE LT ISZERO PUSH1 0x11 JUMPI PUSH1 0x0 DUP1 REVERT JUMPDEST PUSH1 0x0 CALLDATALOAD PUSH1 0xE0 SHR DUP1 PUSH4 0x1E578BAE EQ PUSH1 0x6A JUMPI PUSH4 0xFC7E286D EQ PUSH1 0x2F JUMPI PUSH1 0x0 DUP1 REVERT JUMPDEST CALLVALUE PUSH1 0x65 JUMPI PUSH1 0x20 CALLDATASIZE PUSH1 0x3 NOT ADD SLT PUSH1 0x65 JUMPI PUSH1 0x1 PUSH1 0x1 PUSH1 0xA0 SHL SUB PUSH1 0x4C PUSH1 0xBC JUMP JUMPDEST AND PUSH1 0x0 MSTORE PUSH1 0x0 PUSH1 0x20 MSTORE PUSH1 0x20 PUSH1 0x40 PUSH1 0x0 KECCAK256 SLOAD PUSH1 0x40 MLOAD SWAP1 DUP2 MSTORE RETURN JUMPDEST PUSH1 0x0 DUP1 REVERT JUMPDEST CALLVALUE PUSH1 0x65 JUMPI PUSH1 0x40 CALLDATASIZE PUSH1 0x3 NOT ADD SLT PUSH1 0x65 JUMPI PUSH1 0x1 PUSH1 0x1 PUSH1 0xA0 SHL SUB PUSH1 0x87 PUSH1 0xBC JUMP JUMPDEST AND PUSH1 0x0 MSTORE PUSH1 0x0 PUSH1 0x20 MSTORE PUSH1 0x40 PUSH1 0x0 KECCAK256 DUP1 SLOAD SWAP1 PUSH1 0x24 CALLDATALOAD DUP3 ADD DUP1 SWAP3 GT PUSH1 0xA6 JUMPI SSTORE STOP JUMPDEST PUSH4 0x4E487B71 PUSH1 0xE0 SHL PUSH1 0x0 MSTORE PUSH1 0x11 PUSH1 0x4 MSTORE PUSH1 0x24 PUSH1 0x0 REVERT JUMPDEST PUSH1 0x4 CALLDATALOAD SWAP1 PUSH1 0x1 PUSH1 0x1 PUSH1 0xA0 SHL SUB DUP3 AND DUP3 SUB PUSH1 0x65 JUMPI JUMP INVALID LOG2 PUSH5 0x6970667358 0x22 SLT KECCAK256 0xD4 SIGNEXTEND 0xAA 0x22 SWAP2 PUSH11 0xF40E466941608D9FB79602 0xC1 SWAP13 SMOD 0x28 RETURNDATASIZE 0xD9 0xCC 0x4E GASPRICE 0xCC ORIGIN PUSH9 0x8219A064736F6C6343 STOP ADDMOD SHR STOP CALLER "},"methodIdentifiers":{"deposits(address)":"fc7e286d","recordDeposit(address,uint256)":"1e578bae"}}}}}