{"contracts/testContract.sol":{"LendingPool":{"abi":[{"inputs":[{"internalType":"address","name":"_globalLedger","type":"address"},{"internalType":"TokenId","name":"_usdt","type":"address"},{"internalType":"TokenId","name":"_eth","type":"address"}],"stateMutability":"nonpayable","type":"constructor"},{"inputs":[{"internalType":"uint256","name":"amount","type":"uint256"}],"name":"burnToken","outputs":[],"stateMutability":"nonpayable","type":"function"},{"inputs":[{"internalType":"bytes","name":"callData","type":"bytes"}],"name":"deposit","outputs":[],"stateMutability":"payable","type":"function"},{"inputs":[],"name":"eth","outputs":[{"internalType":"TokenId","name":"","type":"address"}],"stateMutability":"view","type":"function"},{"inputs":[],"name":"getOwnTokenBalance","outputs":[{"internalType":"uint256","name":"","type":"uint256"}],"stateMutability":"view","type":"function"},{"inputs":[{"internalType":"address","name":"account","type":"address"}],"name":"getTokenBalanceOf","outputs":[{"internalType":"uint256","name":"","type":"uint256"}],"stateMutability":"view","type":"function"},{"inputs":[],"name":"getTokenId","outputs":[{"internalType":"TokenId","name":"","type":"address"}],"stateMutability":"view","type":"function"},{"inputs":[],"name":"getTokenName","outputs":[{"internalType":"string","name":"","type":"string"}],"stateMutability":"view","type":"function"},{"inputs":[],"name":"getTokenTotalSupply","outputs":[{"internalType":"uint256","name":"","type":"uint256"}],"stateMutability":"view","type":"function"},{"inputs":[],"name":"globalLedger","outputs":[{"internalType":"address","name":"","type":"address"}],"stateMutability":"view","type":"function"},{"inputs":[{"internalType":"uint256","name":"amount","type":"uint256"}],"name":"mintToken","outputs":[],"stateMutability":"nonpayable","type":"function"},{"inputs":[{"internalType":"address","name":"to","type":"address"},{"internalType":"TokenId","name":"tokenId","type":"address"},{"internalType":"uint256","name":"amount","type":"uint256"}],"name":"sendToken","outputs":[],"stateMutability":"nonpayable","type":"function"},{"inputs":[{"internalType":"string","name":"name","type":"string"}],"name":"setTokenName","outputs":[],"stateMutability":"nonpayable","type":"function"},{"inputs":[],"name":"usdt","outputs":[{"internalType":"TokenId","name":"","type":"address"}],"stateMutability":"view","type":"function"}],"evm":{"bytecode":{"linkReferences":{},"object":"60803460a357601f610d5038819003918201601f19168301916001600160401b0383118484101760a85780849260609460405283398101031260a35760428160be565b906057604060516020840160be565b920160be565b600280546001600160a01b039485166001600160a01b031991821617909155600380549385169382169390931790925560048054919093169116179055604051610c7e90816100d28239f35b600080fd5b634e487b7160e01b600052604160045260246000fd5b51906001600160a01b038216820360a35756fe608080604052600436101561001357600080fd5b60003560e01c908163010a38f5146108d15750806310401774146108a85780632f48ab7d1461087f5780632fdcfbd2146106d657806357df844b146106b85780637b47ec1a146105ac5780638389454814610587578063862b092b146104b35780638c7c9e0c1461048a57806398b1e06a1461036c578063a4f29aad146101cf578063c634d032146100d85763d19b9b75146100ae57600080fd5b346100d35760003660031901126100d35760206100cb3030610bb9565b604051908152f35b600080fd5b346100d35760203660031901126100d3576004356100fd6100f7610a96565b156109d2565b604051632cbbbfe160e11b81526004810182905260016024820152602081604481600060d05af19081156101c357600091610194575b50156101615760005490810180911161014b57600055005b634e487b7160e01b600052601160045260246000fd5b60405162461bcd60e51b815260206004820152600b60248201526a135a5b9d0819985a5b195960aa1b6044820152606490fd5b6101b6915060203d6020116101bc575b6101ae818361095d565b810190610a7e565b82610133565b503d6101a4565b6040513d6000823e3d90fd5b346100d35760203660031901126100d35760043567ffffffffffffffff81116100d357366023820112156100d35761021190369060248160040135910161099b565b61021c6100f7610a96565b805167ffffffffffffffff811161035657610238600154610a44565b601f81116102e9575b50602091601f821160011461027d57918192600092610272575b5050600019600383901b1c1916600191821b179055005b01519050828061025b565b601f198216926001600052600080516020610c298339815191529160005b8581106102d1575083600195106102b8575b505050811b01600155005b015160001960f88460031b161c191690558280806102ad565b9192602060018192868501518155019401920161029b565b6001600052601f820160051c600080516020610c29833981519152019060208310610340575b601f0160051c600080516020610c2983398151915201905b8181106103345750610241565b60008155600101610327565b600080516020610c29833981519152915061030f565b634e487b7160e01b600052604160045260246000fd5b60203660031901126100d35760043567ffffffffffffffff81116100d357366023820112156100d3576103a990369060248160040135910161099b565b60018060a01b036002541690604051809263f697565360e01b82526101048201906000600484015260006024840152604483015260006064830152306084830152600060a483015261010060c483015260605180915261012482019060809060005b81811061045c5750505061042e82916020946003198483030160e4850152610900565b0381600060fd5af180156101c35761044257005b61045a9060203d6020116101bc576101ae818361095d565b005b825180516001600160a01b03168552602090810151818601528795506040909401939092019160010161040b565b346100d35760003660031901126100d3576004546040516001600160a01b039091168152602090f35b346100d35760003660031901126100d35760405160006001546104d581610a44565b80845290600181169081156105635750600114610515575b610511836104fd8185038261095d565b604051918291602083526020830190610900565b0390f35b9190506001600052600080516020610c29833981519152916000905b808210610549575090915081016020016104fd6104ed565b919260018160209254838588010152019101909291610531565b60ff191660208086019190915291151560051b840190910191506104fd90506104ed565b346100d35760203660031901126100d35760206100cb6105a56108ea565b3090610bb9565b346100d35760203660031901126100d3576004356105cb6100f7610a96565b806000541061067357604051632cbbbfe160e11b815281600482015260006024820152602081604481600060d05af19081156101c357600091610654575b50156106215760005490810390811161014b57600055005b60405162461bcd60e51b815260206004820152600b60248201526a109d5c9b8819985a5b195960aa1b6044820152606490fd5b61066d915060203d6020116101bc576101ae818361095d565b82610609565b60405162461bcd60e51b815260206004820152601e60248201527f4275726e206661696c65643a206e6f7420656e6f75676820746f6b656e7300006044820152606490fd5b346100d35760003660031901126100d3576020600054604051908152f35b346100d35760603660031901126100d3576106ef6108ea565b6024356001600160a01b03811691908290036100d357906107116100f7610a96565b6040805191610720828461095d565b60018352601f19820160005b81811061085557505081519061074182610941565b8152604435602082015261075483610b96565b5261075e82610b96565b5060208093825193610770838661095d565b60008552835194859263f697565360e01b8452610104840190600060048601526000602486015260018060a01b031660448501526000606485015260006084850152600060a485015261010060c4850152825180915284610124850193019060005b8782821061082b57505050508282036003190160e484015282916107f591610900565b0381600060fd5af1908115610821575061080b57005b8161045a92903d106101bc576101ae818361095d565b513d6000823e3d90fd5b835180516001600160a01b03168752880151888701528a978a9750950194909201916001016107d2565b602090849695965161086681610941565b600081526000838201528282890101520194939461072c565b346100d35760003660031901126100d3576003546040516001600160a01b039091168152602090f35b346100d35760003660031901126100d3576002546040516001600160a01b039091168152602090f35b346100d35760003660031901126100d357602090308152f35b600435906001600160a01b03821682036100d357565b919082519283825260005b84811061092c575050826000602080949584010152601f8019910116010190565b8060208092840101518282860101520161090b565b6040810190811067ffffffffffffffff82111761035657604052565b90601f8019910116810190811067ffffffffffffffff82111761035657604052565b67ffffffffffffffff811161035657601f01601f191660200190565b9291926109a78261097f565b916109b5604051938461095d565b8294818452818301116100d3578281602093846000960137010152565b156109d957565b60405162461bcd60e51b815260206004820152603a60248201527f547279696e6720746f2063616c6c2065787465726e616c2066756e6374696f6e60448201527f207769746820696e7465726e616c207472616e73616374696f6e0000000000006064820152608490fd5b90600182811c92168015610a74575b6020831014610a5e57565b634e487b7160e01b600052602260045260246000fd5b91607f1691610a53565b908160209103126100d3575180151581036100d35790565b600080606051608060ff5afa3d15610b8e573d90610ab38261097f565b91610ac1604051938461095d565b82523d6000602084013e5b15610b4a57805115610aee5780602080610aeb93518301019101610a7e565b90565b60405162461bcd60e51b815260206004820152602e60248201527f2749535f494e5445524e414c5f5452414e53414354494f4e272072657475726e60448201526d7320696e76616c6964206461746160901b6064820152608490fd5b606460405162461bcd60e51b815260206004820152602060248201527f507265636f6d70696c656420636f6e74726163742063616c6c206661696c65646044820152fd5b606090610acc565b805115610ba35760200190565b634e487b7160e01b600052603260045260246000fd5b604051639614ddaf60e01b81526001600160a01b0392831660048201529116602482015260208160448160d15afa9081156101c357600091610bf9575090565b90506020813d602011610c20575b81610c146020938361095d565b810103126100d3575190565b3d9150610c0756feb10e2d527612073b26eecdfd717e6a320cf44b4afac2b0732d9fcbe2b7fa0cf6a264697066735822122049d1c788aee261b471aa9b9ce5ef0f4d378976bd18a736fe2435ca1e1b6a993364736f6c634300081c0033","opcodes":"PUSH1 0x80 CALLVALUE PUSH1 0xA3 JUMPI PUSH1 0x1F PUSH2 0xD50 CODESIZE DUP2 SWAP1 SUB SWAP2 DUP3 ADD PUSH1 0x1F NOT AND DUP4 ADD SWAP2 PUSH1 0x1 PUSH1 0x1 PUSH1 0x40 SHL SUB DUP4 GT DUP5 DUP5 LT OR PUSH1 0xA8 JUMPI DUP1 DUP5 SWAP3 PUSH1 0x60 SWAP5 PUSH1 0x40 MSTORE DUP4 CODECOPY DUP2 ADD SUB SLT PUSH1 0xA3 JUMPI PUSH1 0x42 DUP2 PUSH1 0xBE JUMP JUMPDEST SWAP1 PUSH1 0x57 PUSH1 0x40 PUSH1 0x51 PUSH1 0x20 DUP5 ADD PUSH1 0xBE JUMP JUMPDEST SWAP3 ADD PUSH1 0xBE JUMP JUMPDEST PUSH1 0x2 DUP1 SLOAD PUSH1 0x1 PUSH1 0x1 PUSH1 0xA0 SHL SUB SWAP5 DUP6 AND PUSH1 0x1 PUSH1 0x1 PUSH1 0xA0 SHL SUB NOT SWAP2 DUP3 AND OR SWAP1 SWAP2 SSTORE PUSH1 0x3 DUP1 SLOAD SWAP4 DUP6 AND SWAP4 DUP3 AND SWAP4 SWAP1 SWAP4 OR SWAP1 SWAP3 SSTORE PUSH1 0x4 DUP1 SLOAD SWAP2 SWAP1 SWAP4 AND SWAP2 AND OR SWAP1 SSTORE PUSH1 0x40 MLOAD PUSH2 0xC7E SWAP1 DUP2 PUSH2 0xD2 DUP3 CODECOPY RETURN JUMPDEST PUSH1 0x0 DUP1 REVERT JUMPDEST PUSH4 0x4E487B71 PUSH1 0xE0 SHL PUSH1 0x0 MSTORE PUSH1 0x41 PUSH1 0x4 MSTORE PUSH1 0x24 PUSH1 0x0 REVERT JUMPDEST MLOAD SWAP1 PUSH1 0x1 PUSH1 0x1 PUSH1 0xA0 SHL SUB DUP3 AND DUP3 SUB PUSH1 0xA3 JUMPI JUMP INVALID PUSH1 0x80 DUP1 PUSH1 0x40 MSTORE PUSH1 0x4 CALLDATASIZE LT ISZERO PUSH2 0x13 JUMPI PUSH1 0x0 DUP1 REVERT JUMPDEST PUSH1 0x0 CALLDATALOAD PUSH1 0xE0 SHR SWAP1 DUP2 PUSH4 0x10A38F5 EQ PUSH2 0x8D1 JUMPI POP DUP1 PUSH4 0x10401774 EQ PUSH2 0x8A8 JUMPI DUP1 PUSH4 0x2F48AB7D EQ PUSH2 0x87F JUMPI DUP1 PUSH4 0x2FDCFBD2 EQ PUSH2 0x6D6 JUMPI DUP1 PUSH4 0x57DF844B EQ PUSH2 0x6B8 JUMPI DUP1 PUSH4 0x7B47EC1A EQ PUSH2 0x5AC JUMPI DUP1 PUSH4 0x83894548 EQ PUSH2 0x587 JUMPI DUP1 PUSH4 0x862B092B EQ PUSH2 0x4B3 JUMPI DUP1 PUSH4 0x8C7C9E0C EQ PUSH2 0x48A JUMPI DUP1 PUSH4 0x98B1E06A EQ PUSH2 0x36C JUMPI DUP1 PUSH4 0xA4F29AAD EQ PUSH2 0x1CF JUMPI DUP1 PUSH4 0xC634D032 EQ PUSH2 0xD8 JUMPI PUSH4 0xD19B9B75 EQ PUSH2 0xAE JUMPI PUSH1 0x0 DUP1 REVERT JUMPDEST CALLVALUE PUSH2 0xD3 JUMPI PUSH1 0x0 CALLDATASIZE PUSH1 0x3 NOT ADD SLT PUSH2 0xD3 JUMPI PUSH1 0x20 PUSH2 0xCB ADDRESS ADDRESS PUSH2 0xBB9 JUMP JUMPDEST PUSH1 0x40 MLOAD SWAP1 DUP2 MSTORE RETURN JUMPDEST PUSH1 0x0 DUP1 REVERT JUMPDEST CALLVALUE PUSH2 0xD3 JUMPI PUSH1 0x20 CALLDATASIZE PUSH1 0x3 NOT ADD SLT PUSH2 0xD3 JUMPI PUSH1 0x4 CALLDATALOAD PUSH2 0xFD PUSH2 0xF7 PUSH2 0xA96 JUMP JUMPDEST ISZERO PUSH2 0x9D2 JUMP JUMPDEST PUSH1 0x40 MLOAD PUSH4 0x2CBBBFE1 PUSH1 0xE1 SHL DUP2 MSTORE PUSH1 0x4 DUP2 ADD DUP3 SWAP1 MSTORE PUSH1 0x1 PUSH1 0x24 DUP3 ADD MSTORE PUSH1 0x20 DUP2 PUSH1 0x44 DUP2 PUSH1 0x0 PUSH1 0xD0 GAS CALL SWAP1 DUP2 ISZERO PUSH2 0x1C3 JUMPI PUSH1 0x0 SWAP2 PUSH2 0x194 JUMPI JUMPDEST POP ISZERO PUSH2 0x161 JUMPI PUSH1 0x0 SLOAD SWAP1 DUP2 ADD DUP1 SWAP2 GT PUSH2 0x14B JUMPI PUSH1 0x0 SSTORE STOP JUMPDEST PUSH4 0x4E487B71 PUSH1 0xE0 SHL PUSH1 0x0 MSTORE PUSH1 0x11 PUSH1 0x4 MSTORE PUSH1 0x24 PUSH1 0x0 REVERT JUMPDEST PUSH1 0x40 MLOAD PUSH3 0x461BCD PUSH1 0xE5 SHL DUP2 MSTORE PUSH1 0x20 PUSH1 0x4 DUP3 ADD MSTORE PUSH1 0xB PUSH1 0x24 DUP3 ADD MSTORE PUSH11 0x135A5B9D0819985A5B1959 PUSH1 0xAA SHL PUSH1 0x44 DUP3 ADD MSTORE PUSH1 0x64 SWAP1 REVERT JUMPDEST PUSH2 0x1B6 SWAP2 POP PUSH1 0x20 RETURNDATASIZE PUSH1 0x20 GT PUSH2 0x1BC JUMPI JUMPDEST PUSH2 0x1AE DUP2 DUP4 PUSH2 0x95D JUMP JUMPDEST DUP2 ADD SWAP1 PUSH2 0xA7E JUMP JUMPDEST DUP3 PUSH2 0x133 JUMP JUMPDEST POP RETURNDATASIZE PUSH2 0x1A4 JUMP JUMPDEST PUSH1 0x40 MLOAD RETURNDATASIZE PUSH1 0x0 DUP3 RETURNDATACOPY RETURNDATASIZE SWAP1 REVERT JUMPDEST CALLVALUE PUSH2 0xD3 JUMPI PUSH1 0x20 CALLDATASIZE PUSH1 0x3 NOT ADD SLT PUSH2 0xD3 JUMPI PUSH1 0x4 CALLDATALOAD PUSH8 0xFFFFFFFFFFFFFFFF DUP2 GT PUSH2 0xD3 JUMPI CALLDATASIZE PUSH1 0x23 DUP3 ADD SLT ISZERO PUSH2 0xD3 JUMPI PUSH2 0x211 SWAP1 CALLDATASIZE SWAP1 PUSH1 0x24 DUP2 PUSH1 0x4 ADD CALLDATALOAD SWAP2 ADD PUSH2 0x99B JUMP JUMPDEST PUSH2 0x21C PUSH2 0xF7 PUSH2 0xA96 JUMP JUMPDEST DUP1 MLOAD PUSH8 0xFFFFFFFFFFFFFFFF DUP2 GT PUSH2 0x356 JUMPI PUSH2 0x238 PUSH1 0x1 SLOAD PUSH2 0xA44 JUMP JUMPDEST PUSH1 0x1F DUP2 GT PUSH2 0x2E9 JUMPI JUMPDEST POP PUSH1 0x20 SWAP2 PUSH1 0x1F DUP3 GT PUSH1 0x1 EQ PUSH2 0x27D JUMPI SWAP2 DUP2 SWAP3 PUSH1 0x0 SWAP3 PUSH2 0x272 JUMPI JUMPDEST POP POP PUSH1 0x0 NOT PUSH1 0x3 DUP4 SWAP1 SHL SHR NOT AND PUSH1 0x1 SWAP2 DUP3 SHL OR SWAP1 SSTORE STOP JUMPDEST ADD MLOAD SWAP1 POP DUP3 DUP1 PUSH2 0x25B JUMP JUMPDEST PUSH1 0x1F NOT DUP3 AND SWAP3 PUSH1 0x1 PUSH1 0x0 MSTORE PUSH1 0x0 DUP1 MLOAD PUSH1 0x20 PUSH2 0xC29 DUP4 CODECOPY DUP2 MLOAD SWAP2 MSTORE SWAP2 PUSH1 0x0 JUMPDEST DUP6 DUP2 LT PUSH2 0x2D1 JUMPI POP DUP4 PUSH1 0x1 SWAP6 LT PUSH2 0x2B8 JUMPI JUMPDEST POP POP POP DUP2 SHL ADD PUSH1 0x1 SSTORE STOP JUMPDEST ADD MLOAD PUSH1 0x0 NOT PUSH1 0xF8 DUP5 PUSH1 0x3 SHL AND SHR NOT AND SWAP1 SSTORE DUP3 DUP1 DUP1 PUSH2 0x2AD JUMP JUMPDEST SWAP2 SWAP3 PUSH1 0x20 PUSH1 0x1 DUP2 SWAP3 DUP7 DUP6 ADD MLOAD DUP2 SSTORE ADD SWAP5 ADD SWAP3 ADD PUSH2 0x29B JUMP JUMPDEST PUSH1 0x1 PUSH1 0x0 MSTORE PUSH1 0x1F DUP3 ADD PUSH1 0x5 SHR PUSH1 0x0 DUP1 MLOAD PUSH1 0x20 PUSH2 0xC29 DUP4 CODECOPY DUP2 MLOAD SWAP2 MSTORE ADD SWAP1 PUSH1 0x20 DUP4 LT PUSH2 0x340 JUMPI JUMPDEST PUSH1 0x1F ADD PUSH1 0x5 SHR PUSH1 0x0 DUP1 MLOAD PUSH1 0x20 PUSH2 0xC29 DUP4 CODECOPY DUP2 MLOAD SWAP2 MSTORE ADD SWAP1 JUMPDEST DUP2 DUP2 LT PUSH2 0x334 JUMPI POP PUSH2 0x241 JUMP JUMPDEST PUSH1 0x0 DUP2 SSTORE PUSH1 0x1 ADD PUSH2 0x327 JUMP JUMPDEST PUSH1 0x0 DUP1 MLOAD PUSH1 0x20 PUSH2 0xC29 DUP4 CODECOPY DUP2 MLOAD SWAP2 MSTORE SWAP2 POP PUSH2 0x30F JUMP JUMPDEST PUSH4 0x4E487B71 PUSH1 0xE0 SHL PUSH1 0x0 MSTORE PUSH1 0x41 PUSH1 0x4 MSTORE PUSH1 0x24 PUSH1 0x0 REVERT JUMPDEST PUSH1 0x20 CALLDATASIZE PUSH1 0x3 NOT ADD SLT PUSH2 0xD3 JUMPI PUSH1 0x4 CALLDATALOAD PUSH8 0xFFFFFFFFFFFFFFFF DUP2 GT PUSH2 0xD3 JUMPI CALLDATASIZE PUSH1 0x23 DUP3 ADD SLT ISZERO PUSH2 0xD3 JUMPI PUSH2 0x3A9 SWAP1 CALLDATASIZE SWAP1 PUSH1 0x24 DUP2 PUSH1 0x4 ADD CALLDATALOAD SWAP2 ADD PUSH2 0x99B JUMP JUMPDEST PUSH1 0x1 DUP1 PUSH1 0xA0 SHL SUB PUSH1 0x2 SLOAD AND SWAP1 PUSH1 0x40 MLOAD DUP1 SWAP3 PUSH4 0xF6975653 PUSH1 0xE0 SHL DUP3 MSTORE PUSH2 0x104 DUP3 ADD SWAP1 PUSH1 0x0 PUSH1 0x4 DUP5 ADD MSTORE PUSH1 0x0 PUSH1 0x24 DUP5 ADD MSTORE PUSH1 0x44 DUP4 ADD MSTORE PUSH1 0x0 PUSH1 0x64 DUP4 ADD MSTORE ADDRESS PUSH1 0x84 DUP4 ADD MSTORE PUSH1 0x0 PUSH1 0xA4 DUP4 ADD MSTORE PUSH2 0x100 PUSH1 0xC4 DUP4 ADD MSTORE PUSH1 0x60 MLOAD DUP1 SWAP2 MSTORE PUSH2 0x124 DUP3 ADD SWAP1 PUSH1 0x80 SWAP1 PUSH1 0x0 JUMPDEST DUP2 DUP2 LT PUSH2 0x45C JUMPI POP POP POP PUSH2 0x42E DUP3 SWAP2 PUSH1 0x20 SWAP5 PUSH1 0x3 NOT DUP5 DUP4 SUB ADD PUSH1 0xE4 DUP6 ADD MSTORE PUSH2 0x900 JUMP JUMPDEST SUB DUP2 PUSH1 0x0 PUSH1 0xFD GAS CALL DUP1 ISZERO PUSH2 0x1C3 JUMPI PUSH2 0x442 JUMPI STOP JUMPDEST PUSH2 0x45A SWAP1 PUSH1 0x20 RETURNDATASIZE PUSH1 0x20 GT PUSH2 0x1BC JUMPI PUSH2 0x1AE DUP2 DUP4 PUSH2 0x95D JUMP JUMPDEST STOP JUMPDEST DUP3 MLOAD DUP1 MLOAD PUSH1 0x1 PUSH1 0x1 PUSH1 0xA0 SHL SUB AND DUP6 MSTORE PUSH1 0x20 SWAP1 DUP2 ADD MLOAD DUP2 DUP7 ADD MSTORE DUP8 SWAP6 POP PUSH1 0x40 SWAP1 SWAP5 ADD SWAP4 SWAP1 SWAP3 ADD SWAP2 PUSH1 0x1 ADD PUSH2 0x40B JUMP JUMPDEST CALLVALUE PUSH2 0xD3 JUMPI PUSH1 0x0 CALLDATASIZE PUSH1 0x3 NOT ADD SLT PUSH2 0xD3 JUMPI PUSH1 0x4 SLOAD PUSH1 0x40 MLOAD PUSH1 0x1 PUSH1 0x1 PUSH1 0xA0 SHL SUB SWAP1 SWAP2 AND DUP2 MSTORE PUSH1 0x20 SWAP1 RETURN JUMPDEST CALLVALUE PUSH2 0xD3 JUMPI PUSH1 0x0 CALLDATASIZE PUSH1 0x3 NOT ADD SLT PUSH2 0xD3 JUMPI PUSH1 0x40 MLOAD PUSH1 0x0 PUSH1 0x1 SLOAD PUSH2 0x4D5 DUP2 PUSH2 0xA44 JUMP JUMPDEST DUP1 DUP5 MSTORE SWAP1 PUSH1 0x1 DUP2 AND SWAP1 DUP2 ISZERO PUSH2 0x563 JUMPI POP PUSH1 0x1 EQ PUSH2 0x515 JUMPI JUMPDEST PUSH2 0x511 DUP4 PUSH2 0x4FD DUP2 DUP6 SUB DUP3 PUSH2 0x95D JUMP JUMPDEST PUSH1 0x40 MLOAD SWAP2 DUP3 SWAP2 PUSH1 0x20 DUP4 MSTORE PUSH1 0x20 DUP4 ADD SWAP1 PUSH2 0x900 JUMP JUMPDEST SUB SWAP1 RETURN JUMPDEST SWAP2 SWAP1 POP PUSH1 0x1 PUSH1 0x0 MSTORE PUSH1 0x0 DUP1 MLOAD PUSH1 0x20 PUSH2 0xC29 DUP4 CODECOPY DUP2 MLOAD SWAP2 MSTORE SWAP2 PUSH1 0x0 SWAP1 JUMPDEST DUP1 DUP3 LT PUSH2 0x549 JUMPI POP SWAP1 SWAP2 POP DUP2 ADD PUSH1 0x20 ADD PUSH2 0x4FD PUSH2 0x4ED JUMP JUMPDEST SWAP2 SWAP3 PUSH1 0x1 DUP2 PUSH1 0x20 SWAP3 SLOAD DUP4 DUP6 DUP9 ADD ADD MSTORE ADD SWAP2 ADD SWAP1 SWAP3 SWAP2 PUSH2 0x531 JUMP JUMPDEST PUSH1 0xFF NOT AND PUSH1 0x20 DUP1 DUP7 ADD SWAP2 SWAP1 SWAP2 MSTORE SWAP2 ISZERO ISZERO PUSH1 0x5 SHL DUP5 ADD SWAP1 SWAP2 ADD SWAP2 POP PUSH2 0x4FD SWAP1 POP PUSH2 0x4ED JUMP JUMPDEST CALLVALUE PUSH2 0xD3 JUMPI PUSH1 0x20 CALLDATASIZE PUSH1 0x3 NOT ADD SLT PUSH2 0xD3 JUMPI PUSH1 0x20 PUSH2 0xCB PUSH2 0x5A5 PUSH2 0x8EA JUMP JUMPDEST ADDRESS SWAP1 PUSH2 0xBB9 JUMP JUMPDEST CALLVALUE PUSH2 0xD3 JUMPI PUSH1 0x20 CALLDATASIZE PUSH1 0x3 NOT ADD SLT PUSH2 0xD3 JUMPI PUSH1 0x4 CALLDATALOAD PUSH2 0x5CB PUSH2 0xF7 PUSH2 0xA96 JUMP JUMPDEST DUP1 PUSH1 0x0 SLOAD LT PUSH2 0x673 JUMPI PUSH1 0x40 MLOAD PUSH4 0x2CBBBFE1 PUSH1 0xE1 SHL DUP2 MSTORE DUP2 PUSH1 0x4 DUP3 ADD MSTORE PUSH1 0x0 PUSH1 0x24 DUP3 ADD MSTORE PUSH1 0x20 DUP2 PUSH1 0x44 DUP2 PUSH1 0x0 PUSH1 0xD0 GAS CALL SWAP1 DUP2 ISZERO PUSH2 0x1C3 JUMPI PUSH1 0x0 SWAP2 PUSH2 0x654 JUMPI JUMPDEST POP ISZERO PUSH2 0x621 JUMPI PUSH1 0x0 SLOAD SWAP1 DUP2 SUB SWAP1 DUP2 GT PUSH2 0x14B JUMPI PUSH1 0x0 SSTORE STOP JUMPDEST PUSH1 0x40 MLOAD PUSH3 0x461BCD PUSH1 0xE5 SHL DUP2 MSTORE PUSH1 0x20 PUSH1 0x4 DUP3 ADD MSTORE PUSH1 0xB PUSH1 0x24 DUP3 ADD MSTORE PUSH11 0x109D5C9B8819985A5B1959 PUSH1 0xAA SHL PUSH1 0x44 DUP3 ADD MSTORE PUSH1 0x64 SWAP1 REVERT JUMPDEST PUSH2 0x66D SWAP2 POP PUSH1 0x20 RETURNDATASIZE PUSH1 0x20 GT PUSH2 0x1BC JUMPI PUSH2 0x1AE DUP2 DUP4 PUSH2 0x95D JUMP JUMPDEST DUP3 PUSH2 0x609 JUMP JUMPDEST PUSH1 0x40 MLOAD PUSH3 0x461BCD PUSH1 0xE5 SHL DUP2 MSTORE PUSH1 0x20 PUSH1 0x4 DUP3 ADD MSTORE PUSH1 0x1E PUSH1 0x24 DUP3 ADD MSTORE PUSH32 0x4275726E206661696C65643A206E6F7420656E6F75676820746F6B656E730000 PUSH1 0x44 DUP3 ADD MSTORE PUSH1 0x64 SWAP1 REVERT JUMPDEST CALLVALUE PUSH2 0xD3 JUMPI PUSH1 0x0 CALLDATASIZE PUSH1 0x3 NOT ADD SLT PUSH2 0xD3 JUMPI PUSH1 0x20 PUSH1 0x0 SLOAD PUSH1 0x40 MLOAD SWAP1 DUP2 MSTORE RETURN JUMPDEST CALLVALUE PUSH2 0xD3 JUMPI PUSH1 0x60 CALLDATASIZE PUSH1 0x3 NOT ADD SLT PUSH2 0xD3 JUMPI PUSH2 0x6EF PUSH2 0x8EA JUMP JUMPDEST PUSH1 0x24 CALLDATALOAD PUSH1 0x1 PUSH1 0x1 PUSH1 0xA0 SHL SUB DUP2 AND SWAP2 SWAP1 DUP3 SWAP1 SUB PUSH2 0xD3 JUMPI SWAP1 PUSH2 0x711 PUSH2 0xF7 PUSH2 0xA96 JUMP JUMPDEST PUSH1 0x40 DUP1 MLOAD SWAP2 PUSH2 0x720 DUP3 DUP5 PUSH2 0x95D JUMP JUMPDEST PUSH1 0x1 DUP4 MSTORE PUSH1 0x1F NOT DUP3 ADD PUSH1 0x0 JUMPDEST DUP2 DUP2 LT PUSH2 0x855 JUMPI POP POP DUP2 MLOAD SWAP1 PUSH2 0x741 DUP3 PUSH2 0x941 JUMP JUMPDEST DUP2 MSTORE PUSH1 0x44 CALLDATALOAD PUSH1 0x20 DUP3 ADD MSTORE PUSH2 0x754 DUP4 PUSH2 0xB96 JUMP JUMPDEST MSTORE PUSH2 0x75E DUP3 PUSH2 0xB96 JUMP JUMPDEST POP PUSH1 0x20 DUP1 SWAP4 DUP3 MLOAD SWAP4 PUSH2 0x770 DUP4 DUP7 PUSH2 0x95D JUMP JUMPDEST PUSH1 0x0 DUP6 MSTORE DUP4 MLOAD SWAP5 DUP6 SWAP3 PUSH4 0xF6975653 PUSH1 0xE0 SHL DUP5 MSTORE PUSH2 0x104 DUP5 ADD SWAP1 PUSH1 0x0 PUSH1 0x4 DUP7 ADD MSTORE PUSH1 0x0 PUSH1 0x24 DUP7 ADD MSTORE PUSH1 0x1 DUP1 PUSH1 0xA0 SHL SUB AND PUSH1 0x44 DUP6 ADD MSTORE PUSH1 0x0 PUSH1 0x64 DUP6 ADD MSTORE PUSH1 0x0 PUSH1 0x84 DUP6 ADD MSTORE PUSH1 0x0 PUSH1 0xA4 DUP6 ADD MSTORE PUSH2 0x100 PUSH1 0xC4 DUP6 ADD MSTORE DUP3 MLOAD DUP1 SWAP2 MSTORE DUP5 PUSH2 0x124 DUP6 ADD SWAP4 ADD SWAP1 PUSH1 0x0 JUMPDEST DUP8 DUP3 DUP3 LT PUSH2 0x82B JUMPI POP POP POP POP DUP3 DUP3 SUB PUSH1 0x3 NOT ADD PUSH1 0xE4 DUP5 ADD MSTORE DUP3 SWAP2 PUSH2 0x7F5 SWAP2 PUSH2 0x900 JUMP JUMPDEST SUB DUP2 PUSH1 0x0 PUSH1 0xFD GAS CALL SWAP1 DUP2 ISZERO PUSH2 0x821 JUMPI POP PUSH2 0x80B JUMPI STOP JUMPDEST DUP2 PUSH2 0x45A SWAP3 SWAP1 RETURNDATASIZE LT PUSH2 0x1BC JUMPI PUSH2 0x1AE DUP2 DUP4 PUSH2 0x95D JUMP JUMPDEST MLOAD RETURNDATASIZE PUSH1 0x0 DUP3 RETURNDATACOPY RETURNDATASIZE SWAP1 REVERT JUMPDEST DUP4 MLOAD DUP1 MLOAD PUSH1 0x1 PUSH1 0x1 PUSH1 0xA0 SHL SUB AND DUP8 MSTORE DUP9 ADD MLOAD DUP9 DUP8 ADD MSTORE DUP11 SWAP8 DUP11 SWAP8 POP SWAP6 ADD SWAP5 SWAP1 SWAP3 ADD SWAP2 PUSH1 0x1 ADD PUSH2 0x7D2 JUMP JUMPDEST PUSH1 0x20 SWAP1 DUP5 SWAP7 SWAP6 SWAP7 MLOAD PUSH2 0x866 DUP2 PUSH2 0x941 JUMP JUMPDEST PUSH1 0x0 DUP2 MSTORE PUSH1 0x0 DUP4 DUP3 ADD MSTORE DUP3 DUP3 DUP10 ADD ADD MSTORE ADD SWAP5 SWAP4 SWAP5 PUSH2 0x72C JUMP JUMPDEST CALLVALUE PUSH2 0xD3 JUMPI PUSH1 0x0 CALLDATASIZE PUSH1 0x3 NOT ADD SLT PUSH2 0xD3 JUMPI PUSH1 0x3 SLOAD PUSH1 0x40 MLOAD PUSH1 0x1 PUSH1 0x1 PUSH1 0xA0 SHL SUB SWAP1 SWAP2 AND DUP2 MSTORE PUSH1 0x20 SWAP1 RETURN JUMPDEST CALLVALUE PUSH2 0xD3 JUMPI PUSH1 0x0 CALLDATASIZE PUSH1 0x3 NOT ADD SLT PUSH2 0xD3 JUMPI PUSH1 0x2 SLOAD PUSH1 0x40 MLOAD PUSH1 0x1 PUSH1 0x1 PUSH1 0xA0 SHL SUB SWAP1 SWAP2 AND DUP2 MSTORE PUSH1 0x20 SWAP1 RETURN JUMPDEST CALLVALUE PUSH2 0xD3 JUMPI PUSH1 0x0 CALLDATASIZE PUSH1 0x3 NOT ADD SLT PUSH2 0xD3 JUMPI PUSH1 0x20 SWAP1 ADDRESS DUP2 MSTORE RETURN JUMPDEST PUSH1 0x4 CALLDATALOAD SWAP1 PUSH1 0x1 PUSH1 0x1 PUSH1 0xA0 SHL SUB DUP3 AND DUP3 SUB PUSH2 0xD3 JUMPI JUMP JUMPDEST SWAP2 SWAP1 DUP3 MLOAD SWAP3 DUP4 DUP3 MSTORE PUSH1 0x0 JUMPDEST DUP5 DUP2 LT PUSH2 0x92C JUMPI POP POP DUP3 PUSH1 0x0 PUSH1 0x20 DUP1 SWAP5 SWAP6 DUP5 ADD ADD MSTORE PUSH1 0x1F DUP1 NOT SWAP2 ADD AND ADD ADD SWAP1 JUMP JUMPDEST DUP1 PUSH1 0x20 DUP1 SWAP3 DUP5 ADD ADD MLOAD DUP3 DUP3 DUP7 ADD ADD MSTORE ADD PUSH2 0x90B JUMP JUMPDEST PUSH1 0x40 DUP2 ADD SWAP1 DUP2 LT PUSH8 0xFFFFFFFFFFFFFFFF DUP3 GT OR PUSH2 0x356 JUMPI PUSH1 0x40 MSTORE JUMP JUMPDEST SWAP1 PUSH1 0x1F DUP1 NOT SWAP2 ADD AND DUP2 ADD SWAP1 DUP2 LT PUSH8 0xFFFFFFFFFFFFFFFF DUP3 GT OR PUSH2 0x356 JUMPI PUSH1 0x40 MSTORE JUMP JUMPDEST PUSH8 0xFFFFFFFFFFFFFFFF DUP2 GT PUSH2 0x356 JUMPI PUSH1 0x1F ADD PUSH1 0x1F NOT AND PUSH1 0x20 ADD SWAP1 JUMP JUMPDEST SWAP3 SWAP2 SWAP3 PUSH2 0x9A7 DUP3 PUSH2 0x97F JUMP JUMPDEST SWAP2 PUSH2 0x9B5 PUSH1 0x40 MLOAD SWAP4 DUP5 PUSH2 0x95D JUMP JUMPDEST DUP3 SWAP5 DUP2 DUP5 MSTORE DUP2 DUP4 ADD GT PUSH2 0xD3 JUMPI DUP3 DUP2 PUSH1 0x20 SWAP4 DUP5 PUSH1 0x0 SWAP7 ADD CALLDATACOPY ADD ADD MSTORE JUMP JUMPDEST ISZERO PUSH2 0x9D9 JUMPI JUMP JUMPDEST PUSH1 0x40 MLOAD PUSH3 0x461BCD PUSH1 0xE5 SHL DUP2 MSTORE PUSH1 0x20 PUSH1 0x4 DUP3 ADD MSTORE PUSH1 0x3A PUSH1 0x24 DUP3 ADD MSTORE PUSH32 0x547279696E6720746F2063616C6C2065787465726E616C2066756E6374696F6E PUSH1 0x44 DUP3 ADD MSTORE PUSH32 0x207769746820696E7465726E616C207472616E73616374696F6E000000000000 PUSH1 0x64 DUP3 ADD MSTORE PUSH1 0x84 SWAP1 REVERT JUMPDEST SWAP1 PUSH1 0x1 DUP3 DUP2 SHR SWAP3 AND DUP1 ISZERO PUSH2 0xA74 JUMPI JUMPDEST PUSH1 0x20 DUP4 LT EQ PUSH2 0xA5E JUMPI JUMP JUMPDEST PUSH4 0x4E487B71 PUSH1 0xE0 SHL PUSH1 0x0 MSTORE PUSH1 0x22 PUSH1 0x4 MSTORE PUSH1 0x24 PUSH1 0x0 REVERT JUMPDEST SWAP2 PUSH1 0x7F AND SWAP2 PUSH2 0xA53 JUMP JUMPDEST SWAP1 DUP2 PUSH1 0x20 SWAP2 SUB SLT PUSH2 0xD3 JUMPI MLOAD DUP1 ISZERO ISZERO DUP2 SUB PUSH2 0xD3 JUMPI SWAP1 JUMP JUMPDEST PUSH1 0x0 DUP1 PUSH1 0x60 MLOAD PUSH1 0x80 PUSH1 0xFF GAS STATICCALL RETURNDATASIZE ISZERO PUSH2 0xB8E JUMPI RETURNDATASIZE SWAP1 PUSH2 0xAB3 DUP3 PUSH2 0x97F JUMP JUMPDEST SWAP2 PUSH2 0xAC1 PUSH1 0x40 MLOAD SWAP4 DUP5 PUSH2 0x95D JUMP JUMPDEST DUP3 MSTORE RETURNDATASIZE PUSH1 0x0 PUSH1 0x20 DUP5 ADD RETURNDATACOPY JUMPDEST ISZERO PUSH2 0xB4A JUMPI DUP1 MLOAD ISZERO PUSH2 0xAEE JUMPI DUP1 PUSH1 0x20 DUP1 PUSH2 0xAEB SWAP4 MLOAD DUP4 ADD ADD SWAP2 ADD PUSH2 0xA7E JUMP JUMPDEST SWAP1 JUMP JUMPDEST PUSH1 0x40 MLOAD PUSH3 0x461BCD PUSH1 0xE5 SHL DUP2 MSTORE PUSH1 0x20 PUSH1 0x4 DUP3 ADD MSTORE PUSH1 0x2E PUSH1 0x24 DUP3 ADD MSTORE PUSH32 0x2749535F494E5445524E414C5F5452414E53414354494F4E272072657475726E PUSH1 0x44 DUP3 ADD MSTORE PUSH14 0x7320696E76616C69642064617461 PUSH1 0x90 SHL PUSH1 0x64 DUP3 ADD MSTORE PUSH1 0x84 SWAP1 REVERT JUMPDEST PUSH1 0x64 PUSH1 0x40 MLOAD PUSH3 0x461BCD PUSH1 0xE5 SHL DUP2 MSTORE PUSH1 0x20 PUSH1 0x4 DUP3 ADD MSTORE PUSH1 0x20 PUSH1 0x24 DUP3 ADD MSTORE PUSH32 0x507265636F6D70696C656420636F6E74726163742063616C6C206661696C6564 PUSH1 0x44 DUP3 ADD MSTORE REVERT JUMPDEST PUSH1 0x60 SWAP1 PUSH2 0xACC JUMP JUMPDEST DUP1 MLOAD ISZERO PUSH2 0xBA3 JUMPI PUSH1 0x20 ADD SWAP1 JUMP JUMPDEST PUSH4 0x4E487B71 PUSH1 0xE0 SHL PUSH1 0x0 MSTORE PUSH1 0x32 PUSH1 0x4 MSTORE PUSH1 0x24 PUSH1 0x0 REVERT JUMPDEST PUSH1 0x40 MLOAD PUSH4 0x9614DDAF PUSH1 0xE0 SHL DUP2 MSTORE PUSH1 0x1 PUSH1 0x1 PUSH1 0xA0 SHL SUB SWAP3 DUP4 AND PUSH1 0x4 DUP3 ADD MSTORE SWAP2 AND PUSH1 0x24 DUP3 ADD MSTORE PUSH1 0x20 DUP2 PUSH1 0x44 DUP2 PUSH1 0xD1 GAS STATICCALL SWAP1 DUP2 ISZERO PUSH2 0x1C3 JUMPI PUSH1 0x0 SWAP2 PUSH2 0xBF9 JUMPI POP SWAP1 JUMP JUMPDEST SWAP1 POP PUSH1 0x20 DUP2 RETURNDATASIZE PUSH1 0x20 GT PUSH2 0xC20 JUMPI JUMPDEST DUP2 PUSH2 0xC14 PUSH1 0x20 SWAP4 DUP4 PUSH2 0x95D JUMP JUMPDEST DUP2 ADD SUB SLT PUSH2 0xD3 JUMPI MLOAD SWAP1 JUMP JUMPDEST RETURNDATASIZE SWAP2 POP PUSH2 0xC07 JUMP INVALID 0xB1 0xE 0x2D MSTORE PUSH23 0x12073B26EECDFD717E6A320CF44B4AFAC2B0732D9FCBE2 0xB7 STATICCALL 0xC 0xF6 LOG2 PUSH5 0x6970667358 0x22 SLT KECCAK256 BLOBHASH 0xD1 0xC7 DUP9 0xAE 0xE2 PUSH2 0xB471 0xAA SWAP12 SWAP13 0xE5 0xEF 0xF 0x4D CALLDATACOPY DUP10 PUSH23 0xBD18A736FE2435CA1E1B6A993364736F6C634300081C00 CALLER "},"methodIdentifiers":{"burnToken(uint256)":"7b47ec1a","deposit(bytes)":"98b1e06a","eth()":"8c7c9e0c","getOwnTokenBalance()":"d19b9b75","getTokenBalanceOf(address)":"83894548","getTokenId()":"010a38f5","getTokenName()":"862b092b","getTokenTotalSupply()":"57df844b","globalLedger()":"10401774","mintToken(uint256)":"c634d032","sendToken(address,address,uint256)":"2fdcfbd2","setTokenName(string)":"a4f29aad","usdt()":"2f48ab7d"}}}}}