{
  "_format": "hh-sol-artifact-1",
  "contractName": "InterestManager",
  "sourceName": "contracts/InterestManager.sol",
  "abi": [
    {
      "inputs": [],
      "name": "getInterestRate",
      "outputs": [
        {
          "internalType": "uint256",
          "name": "",
          "type": "uint256"
        }
      ],
      "stateMutability": "pure",
      "type": "function"
    }
  ],
  "bytecode": "0x608080604052346013576079908160198239f35b600080fdfe6080806040526004361015601257600080fd5b60003560e01c635257b56614602657600080fd5b34603e576000366003190112603e5780600560209252f35b600080fdfea2646970667358221220bb45b41e668af1e0b91a184dbc96fb85c66cb606b2145ca1aec86ed29e30f94664736f6c634300081c0033",
  "linkReferences": {},
  "deployedLinkReferences": {}
}