{
  "_format": "hh-sol-artifact-1",
  "contractName": "NilConfigAbi",
  "sourceName": "@nilfoundation/smart-contracts/contracts/Nil.sol",
  "abi": [
    {
      "inputs": [
        {
          "components": [
            {
              "components": [
                {
                  "components": [
                    {
                      "internalType": "uint8[33]",
                      "name": "PublicKey",
                      "type": "uint8[33]"
                    },
                    {
                      "internalType": "address",
                      "name": "WithdrawalAddress",
                      "type": "address"
                    }
                  ],
                  "internalType": "struct Nil.ValidatorInfo[]",
                  "name": "list",
                  "type": "tuple[]"
                }
              ],
              "internalType": "struct Nil.ListValidators[]",
              "name": "validators",
              "type": "tuple[]"
            }
          ],
          "internalType": "struct Nil.ParamValidators",
          "name": "",
          "type": "tuple"
        }
      ],
      "name": "curr_validators",
      "outputs": [],
      "stateMutability": "nonpayable",
      "type": "function"
    },
    {
      "inputs": [
        {
          "components": [
            {
              "internalType": "uint256[]",
              "name": "shards",
              "type": "uint256[]"
            }
          ],
          "internalType": "struct Nil.ParamGasPrice",
          "name": "",
          "type": "tuple"
        }
      ],
      "name": "gas_price",
      "outputs": [],
      "stateMutability": "nonpayable",
      "type": "function"
    },
    {
      "inputs": [
        {
          "components": [
            {
              "internalType": "uint64",
              "name": "number",
              "type": "uint64"
            },
            {
              "internalType": "uint64",
              "name": "timestamp",
              "type": "uint64"
            },
            {
              "internalType": "uint256",
              "name": "baseFee",
              "type": "uint256"
            },
            {
              "internalType": "uint256",
              "name": "blobBaseFee",
              "type": "uint256"
            },
            {
              "internalType": "bytes32",
              "name": "hash",
              "type": "bytes32"
            }
          ],
          "internalType": "struct Nil.ParamL1BlockInfo",
          "name": "",
          "type": "tuple"
        }
      ],
      "name": "l1block",
      "outputs": [],
      "stateMutability": "nonpayable",
      "type": "function"
    }
  ],
  "bytecode": "0x60808060405234601557610402908161001b8239f35b600080fdfe6080604052600436101561001257600080fd5b60003560e01c806341207afb146102c8578063e66c5d52146102395763fb5d63f51461003d57600080fd5b34610204576020366003190112610204576004356001600160401b038111610204576020600319823603011261020457610075610371565b908060040135906001600160401b038211610204570190366023830112156102045760048201356100ad6100a8826103b5565b610390565b92602060048186858152019360051b83010101903682116102045760248101925b8284106100da57858552005b83356001600160401b038111610204576004908301016020601f19823603011261020457610106610371565b9060208101356001600160401b03811161020457602091010136601f820112156102045780356101386100a8826103b5565b91602061044081858581520193028201019036821161020457602001915b8183106101705750505081528152602093840193016100ce565b610440833603126102045760405190604082018281106001600160401b038211176102235760405236601f850112156102045760405161042081018181106001600160401b0382111761022357604052806104208601913683116102045786905b838210610209575050835235906001600160a01b0382168203610204578260209283610440950152815201920191610156565b600080fd5b813560ff81168103610204578152602091820191016101d1565b634e487b7160e01b600052604160045260246000fd5b346102045760a036600319011261020457600060405160a081018181106001600160401b038211176102b4576040526004356001600160401b03811681036102b05781526024356001600160401b03811681036102b057602082015260443560408201526064356060820152608060843591015280f35b8280fd5b634e487b7160e01b83526041600452602483fd5b34610204576020366003190112610204576004356001600160401b038111610204576020600319823603011261020457610300610371565b908060040135906001600160401b03821161020457019036602383011215610204576004820135916103346100a8846103b5565b92602060048186848152019260051b840101019136831161020457602401905b8282106103615750505052005b8135815260209182019101610354565b60405190602082018281106001600160401b0382111761022357604052565b6040519190601f01601f191682016001600160401b0381118382101761022357604052565b6001600160401b0381116102235760051b6020019056fea2646970667358221220379b48953cffb55b5e9d1b526817b65c56c961d9a7201be071c0deb4c09ada0d64736f6c634300081c0033",
  "linkReferences": {},
  "deployedLinkReferences": {}
}