{
  "_format": "hh-sol-artifact-1",
  "contractName": "GlobalLedger",
  "sourceName": "contracts/testContract.sol",
  "abi": [
    {
      "inputs": [
        {
          "internalType": "address",
          "name": "",
          "type": "address"
        }
      ],
      "name": "deposits",
      "outputs": [
        {
          "internalType": "uint256",
          "name": "",
          "type": "uint256"
        }
      ],
      "stateMutability": "view",
      "type": "function"
    },
    {
      "inputs": [
        {
          "internalType": "address",
          "name": "user",
          "type": "address"
        },
        {
          "internalType": "uint256",
          "name": "amount",
          "type": "uint256"
        }
      ],
      "name": "recordDeposit",
      "outputs": [],
      "stateMutability": "nonpayable",
      "type": "function"
    }
  ],
  "bytecode": "0x60808060405234601557610107908161001b8239f35b600080fdfe60806040526004361015601157600080fd5b60003560e01c80631e578bae14606a5763fc7e286d14602f57600080fd5b3460655760203660031901126065576001600160a01b03604c60bc565b1660005260006020526020604060002054604051908152f35b600080fd5b3460655760403660031901126065576001600160a01b03608760bc565b1660005260006020526040600020805490602435820180921160a65755005b634e487b7160e01b600052601160045260246000fd5b600435906001600160a01b038216820360655756fea2646970667358221220d40baa22916af40e466941608d9fb79602c19c07283dd9cc4e3acc32688219a064736f6c634300081c0033",
  "linkReferences": {},
  "deployedLinkReferences": {}
}