{
  "_format": "hh-sol-artifact-1",
  "contractName": "LendingPool",
  "sourceName": "contracts/testContract.sol",
  "abi": [
    {
      "inputs": [
        {
          "internalType": "address",
          "name": "_globalLedger",
          "type": "address"
        },
        {
          "internalType": "TokenId",
          "name": "_usdt",
          "type": "address"
        },
        {
          "internalType": "TokenId",
          "name": "_eth",
          "type": "address"
        }
      ],
      "stateMutability": "nonpayable",
      "type": "constructor"
    },
    {
      "inputs": [
        {
          "internalType": "uint256",
          "name": "amount",
          "type": "uint256"
        }
      ],
      "name": "burnToken",
      "outputs": [],
      "stateMutability": "nonpayable",
      "type": "function"
    },
    {
      "inputs": [
        {
          "internalType": "bytes",
          "name": "callData",
          "type": "bytes"
        }
      ],
      "name": "deposit",
      "outputs": [],
      "stateMutability": "payable",
      "type": "function"
    },
    {
      "inputs": [],
      "name": "eth",
      "outputs": [
        {
          "internalType": "TokenId",
          "name": "",
          "type": "address"
        }
      ],
      "stateMutability": "view",
      "type": "function"
    },
    {
      "inputs": [],
      "name": "getOwnTokenBalance",
      "outputs": [
        {
          "internalType": "uint256",
          "name": "",
          "type": "uint256"
        }
      ],
      "stateMutability": "view",
      "type": "function"
    },
    {
      "inputs": [
        {
          "internalType": "address",
          "name": "account",
          "type": "address"
        }
      ],
      "name": "getTokenBalanceOf",
      "outputs": [
        {
          "internalType": "uint256",
          "name": "",
          "type": "uint256"
        }
      ],
      "stateMutability": "view",
      "type": "function"
    },
    {
      "inputs": [],
      "name": "getTokenId",
      "outputs": [
        {
          "internalType": "TokenId",
          "name": "",
          "type": "address"
        }
      ],
      "stateMutability": "view",
      "type": "function"
    },
    {
      "inputs": [],
      "name": "getTokenName",
      "outputs": [
        {
          "internalType": "string",
          "name": "",
          "type": "string"
        }
      ],
      "stateMutability": "view",
      "type": "function"
    },
    {
      "inputs": [],
      "name": "getTokenTotalSupply",
      "outputs": [
        {
          "internalType": "uint256",
          "name": "",
          "type": "uint256"
        }
      ],
      "stateMutability": "view",
      "type": "function"
    },
    {
      "inputs": [],
      "name": "globalLedger",
      "outputs": [
        {
          "internalType": "address",
          "name": "",
          "type": "address"
        }
      ],
      "stateMutability": "view",
      "type": "function"
    },
    {
      "inputs": [
        {
          "internalType": "uint256",
          "name": "amount",
          "type": "uint256"
        }
      ],
      "name": "mintToken",
      "outputs": [],
      "stateMutability": "nonpayable",
      "type": "function"
    },
    {
      "inputs": [
        {
          "internalType": "address",
          "name": "to",
          "type": "address"
        },
        {
          "internalType": "TokenId",
          "name": "tokenId",
          "type": "address"
        },
        {
          "internalType": "uint256",
          "name": "amount",
          "type": "uint256"
        }
      ],
      "name": "sendToken",
      "outputs": [],
      "stateMutability": "nonpayable",
      "type": "function"
    },
    {
      "inputs": [
        {
          "internalType": "string",
          "name": "name",
          "type": "string"
        }
      ],
      "name": "setTokenName",
      "outputs": [],
      "stateMutability": "nonpayable",
      "type": "function"
    },
    {
      "inputs": [],
      "name": "usdt",
      "outputs": [
        {
          "internalType": "TokenId",
          "name": "",
          "type": "address"
        }
      ],
      "stateMutability": "view",
      "type": "function"
    }
  ],
  "bytecode": "0x60803460a357601f610d5038819003918201601f19168301916001600160401b0383118484101760a85780849260609460405283398101031260a35760428160be565b906057604060516020840160be565b920160be565b600280546001600160a01b039485166001600160a01b031991821617909155600380549385169382169390931790925560048054919093169116179055604051610c7e90816100d28239f35b600080fd5b634e487b7160e01b600052604160045260246000fd5b51906001600160a01b038216820360a35756fe608080604052600436101561001357600080fd5b60003560e01c908163010a38f5146108d15750806310401774146108a85780632f48ab7d1461087f5780632fdcfbd2146106d657806357df844b146106b85780637b47ec1a146105ac5780638389454814610587578063862b092b146104b35780638c7c9e0c1461048a57806398b1e06a1461036c578063a4f29aad146101cf578063c634d032146100d85763d19b9b75146100ae57600080fd5b346100d35760003660031901126100d35760206100cb3030610bb9565b604051908152f35b600080fd5b346100d35760203660031901126100d3576004356100fd6100f7610a96565b156109d2565b604051632cbbbfe160e11b81526004810182905260016024820152602081604481600060d05af19081156101c357600091610194575b50156101615760005490810180911161014b57600055005b634e487b7160e01b600052601160045260246000fd5b60405162461bcd60e51b815260206004820152600b60248201526a135a5b9d0819985a5b195960aa1b6044820152606490fd5b6101b6915060203d6020116101bc575b6101ae818361095d565b810190610a7e565b82610133565b503d6101a4565b6040513d6000823e3d90fd5b346100d35760203660031901126100d35760043567ffffffffffffffff81116100d357366023820112156100d35761021190369060248160040135910161099b565b61021c6100f7610a96565b805167ffffffffffffffff811161035657610238600154610a44565b601f81116102e9575b50602091601f821160011461027d57918192600092610272575b5050600019600383901b1c1916600191821b179055005b01519050828061025b565b601f198216926001600052600080516020610c298339815191529160005b8581106102d1575083600195106102b8575b505050811b01600155005b015160001960f88460031b161c191690558280806102ad565b9192602060018192868501518155019401920161029b565b6001600052601f820160051c600080516020610c29833981519152019060208310610340575b601f0160051c600080516020610c2983398151915201905b8181106103345750610241565b60008155600101610327565b600080516020610c29833981519152915061030f565b634e487b7160e01b600052604160045260246000fd5b60203660031901126100d35760043567ffffffffffffffff81116100d357366023820112156100d3576103a990369060248160040135910161099b565b60018060a01b036002541690604051809263f697565360e01b82526101048201906000600484015260006024840152604483015260006064830152306084830152600060a483015261010060c483015260605180915261012482019060809060005b81811061045c5750505061042e82916020946003198483030160e4850152610900565b0381600060fd5af180156101c35761044257005b61045a9060203d6020116101bc576101ae818361095d565b005b825180516001600160a01b03168552602090810151818601528795506040909401939092019160010161040b565b346100d35760003660031901126100d3576004546040516001600160a01b039091168152602090f35b346100d35760003660031901126100d35760405160006001546104d581610a44565b80845290600181169081156105635750600114610515575b610511836104fd8185038261095d565b604051918291602083526020830190610900565b0390f35b9190506001600052600080516020610c29833981519152916000905b808210610549575090915081016020016104fd6104ed565b919260018160209254838588010152019101909291610531565b60ff191660208086019190915291151560051b840190910191506104fd90506104ed565b346100d35760203660031901126100d35760206100cb6105a56108ea565b3090610bb9565b346100d35760203660031901126100d3576004356105cb6100f7610a96565b806000541061067357604051632cbbbfe160e11b815281600482015260006024820152602081604481600060d05af19081156101c357600091610654575b50156106215760005490810390811161014b57600055005b60405162461bcd60e51b815260206004820152600b60248201526a109d5c9b8819985a5b195960aa1b6044820152606490fd5b61066d915060203d6020116101bc576101ae818361095d565b82610609565b60405162461bcd60e51b815260206004820152601e60248201527f4275726e206661696c65643a206e6f7420656e6f75676820746f6b656e7300006044820152606490fd5b346100d35760003660031901126100d3576020600054604051908152f35b346100d35760603660031901126100d3576106ef6108ea565b6024356001600160a01b03811691908290036100d357906107116100f7610a96565b6040805191610720828461095d565b60018352601f19820160005b81811061085557505081519061074182610941565b8152604435602082015261075483610b96565b5261075e82610b96565b5060208093825193610770838661095d565b60008552835194859263f697565360e01b8452610104840190600060048601526000602486015260018060a01b031660448501526000606485015260006084850152600060a485015261010060c4850152825180915284610124850193019060005b8782821061082b57505050508282036003190160e484015282916107f591610900565b0381600060fd5af1908115610821575061080b57005b8161045a92903d106101bc576101ae818361095d565b513d6000823e3d90fd5b835180516001600160a01b03168752880151888701528a978a9750950194909201916001016107d2565b602090849695965161086681610941565b600081526000838201528282890101520194939461072c565b346100d35760003660031901126100d3576003546040516001600160a01b039091168152602090f35b346100d35760003660031901126100d3576002546040516001600160a01b039091168152602090f35b346100d35760003660031901126100d357602090308152f35b600435906001600160a01b03821682036100d357565b919082519283825260005b84811061092c575050826000602080949584010152601f8019910116010190565b8060208092840101518282860101520161090b565b6040810190811067ffffffffffffffff82111761035657604052565b90601f8019910116810190811067ffffffffffffffff82111761035657604052565b67ffffffffffffffff811161035657601f01601f191660200190565b9291926109a78261097f565b916109b5604051938461095d565b8294818452818301116100d3578281602093846000960137010152565b156109d957565b60405162461bcd60e51b815260206004820152603a60248201527f547279696e6720746f2063616c6c2065787465726e616c2066756e6374696f6e60448201527f207769746820696e7465726e616c207472616e73616374696f6e0000000000006064820152608490fd5b90600182811c92168015610a74575b6020831014610a5e57565b634e487b7160e01b600052602260045260246000fd5b91607f1691610a53565b908160209103126100d3575180151581036100d35790565b600080606051608060ff5afa3d15610b8e573d90610ab38261097f565b91610ac1604051938461095d565b82523d6000602084013e5b15610b4a57805115610aee5780602080610aeb93518301019101610a7e565b90565b60405162461bcd60e51b815260206004820152602e60248201527f2749535f494e5445524e414c5f5452414e53414354494f4e272072657475726e60448201526d7320696e76616c6964206461746160901b6064820152608490fd5b606460405162461bcd60e51b815260206004820152602060248201527f507265636f6d70696c656420636f6e74726163742063616c6c206661696c65646044820152fd5b606090610acc565b805115610ba35760200190565b634e487b7160e01b600052603260045260246000fd5b604051639614ddaf60e01b81526001600160a01b0392831660048201529116602482015260208160448160d15afa9081156101c357600091610bf9575090565b90506020813d602011610c20575b81610c146020938361095d565b810103126100d3575190565b3d9150610c0756feb10e2d527612073b26eecdfd717e6a320cf44b4afac2b0732d9fcbe2b7fa0cf6a264697066735822122049d1c788aee261b471aa9b9ce5ef0f4d378976bd18a736fe2435ca1e1b6a993364736f6c634300081c0033",
  "linkReferences": {},
  "deployedLinkReferences": {}
}